{
  "_format": "hh-sol-artifact-1",
  "contractName": "CarOwner",
  "sourceName": "contracts/CarOwner.sol",
  "abi": [
    {
      "inputs": [
        {
          "internalType": "address",
          "name": "_manufacturer",
          "type": "address"
        }
      ],
      "stateMutability": "nonpayable",
      "type": "constructor"
    },
    {
      "inputs": [
        {
          "internalType": "string",
          "name": "vin",
          "type": "string"
        },
        {
          "internalType": "uint256",
          "name": "productionDate",
          "type": "uint256"
        },
        {
          "internalType": "uint256",
          "name": "initialMileage",
          "type": "uint256"
        }
      ],
      "name": "changeCarInfo",
      "outputs": [],
      "stateMutability": "nonpayable",
      "type": "function"
    },
    {
      "inputs": [],
      "name": "manufacturer",
      "outputs": [
        {
          "internalType": "contract Manufacturer",
          "name": "",
          "type": "address"
        }
      ],
      "stateMutability": "view",
      "type": "function"
    },
    {
      "inputs": [
        {
          "internalType": "string",
          "name": "vin",
          "type": "string"
        },
        {
          "internalType": "address",
          "name": "newOwner",
          "type": "address"
        }
      ],
      "name": "requestOwnershipChange",
      "outputs": [],
      "stateMutability": "nonpayable",
      "type": "function"
    }
  ],
  "bytecode": "0x608060405234801561001057600080fd5b50604051610770380380610770833981810160405281019061003291906100db565b806000806101000a81548173ffffffffffffffffffffffffffffffffffffffff021916908373ffffffffffffffffffffffffffffffffffffffff16021790555050610108565b600080fd5b600073ffffffffffffffffffffffffffffffffffffffff82169050919050565b60006100a88261007d565b9050919050565b6100b88161009d565b81146100c357600080fd5b50565b6000815190506100d5816100af565b92915050565b6000602082840312156100f1576100f0610078565b5b60006100ff848285016100c6565b91505092915050565b610659806101176000396000f3fe608060405234801561001057600080fd5b50600436106100415760003560e01c80631d716d5f1461004657806374754282146100625780637d00ba0314610080575b600080fd5b610060600480360381019061005b9190610375565b61009c565b005b61006a610130565b6040516100779190610463565b60405180910390f35b61009a600480360381019061009591906104bc565b610154565b005b60008054906101000a900473ffffffffffffffffffffffffffffffffffffffff1673ffffffffffffffffffffffffffffffffffffffff16631d716d5f8484846040518463ffffffff1660e01b81526004016100f9939291906105a6565b600060405180830381600087803b15801561011357600080fd5b505af1158015610127573d6000803e3d6000fd5b50505050505050565b60008054906101000a900473ffffffffffffffffffffffffffffffffffffffff1681565b60008054906101000a900473ffffffffffffffffffffffffffffffffffffffff1673ffffffffffffffffffffffffffffffffffffffff16630d94fb5f83836040518363ffffffff1660e01b81526004016101af9291906105f3565b600060405180830381600087803b1580156101c957600080fd5b505af11580156101dd573d6000803e3d6000fd5b505050505050565b6000604051905090565b600080fd5b600080fd5b600080fd5b600080fd5b6000601f19601f8301169050919050565b7f4e487b7100000000000000000000000000000000000000000000000000000000600052604160045260246000fd5b61024c82610203565b810181811067ffffffffffffffff8211171561026b5761026a610214565b5b80604052505050565b600061027e6101e5565b905061028a8282610243565b919050565b600067ffffffffffffffff8211156102aa576102a9610214565b5b6102b382610203565b9050602081019050919050565b82818337600083830152505050565b60006102e26102dd8461028f565b610274565b9050828152602081018484840111156102fe576102fd6101fe565b5b6103098482856102c0565b509392505050565b600082601f830112610326576103256101f9565b5b81356103368482602086016102cf565b91505092915050565b6000819050919050565b6103528161033f565b811461035d57600080fd5b50565b60008135905061036f81610349565b92915050565b60008060006060848603121561038e5761038d6101ef565b5b600084013567ffffffffffffffff8111156103ac576103ab6101f4565b5b6103b886828701610311565b93505060206103c986828701610360565b92505060406103da86828701610360565b9150509250925092565b600073ffffffffffffffffffffffffffffffffffffffff82169050919050565b6000819050919050565b600061042961042461041f846103e4565b610404565b6103e4565b9050919050565b600061043b8261040e565b9050919050565b600061044d82610430565b9050919050565b61045d81610442565b82525050565b60006020820190506104786000830184610454565b92915050565b6000610489826103e4565b9050919050565b6104998161047e565b81146104a457600080fd5b50565b6000813590506104b681610490565b92915050565b600080604083850312156104d3576104d26101ef565b5b600083013567ffffffffffffffff8111156104f1576104f06101f4565b5b6104fd85828601610311565b925050602061050e858286016104a7565b9150509250929050565b600081519050919050565b600082825260208201905092915050565b60005b83811015610552578082015181840152602081019050610537565b60008484015250505050565b600061056982610518565b6105738185610523565b9350610583818560208601610534565b61058c81610203565b840191505092915050565b6105a08161033f565b82525050565b600060608201905081810360008301526105c0818661055e565b90506105cf6020830185610597565b6105dc6040830184610597565b949350505050565b6105ed8161047e565b82525050565b6000604082019050818103600083015261060d818561055e565b905061061c60208301846105e4565b939250505056fea2646970667358221220d73f85960b626f34a445598fbea67b01feecd1a2e2e77246e6b6437a0d213ce864736f6c63430008180033",
  "linkReferences": {},
  "deployedLinkReferences": {}
}