{
  "_format": "hh-sol-artifact-1",
  "contractName": "CarShops",
  "sourceName": "contracts/CarShops.sol",
  "abi": [
    {
      "inputs": [
        {
          "internalType": "address",
          "name": "_manufacturer",
          "type": "address"
        }
      ],
      "stateMutability": "nonpayable",
      "type": "constructor"
    },
    {
      "anonymous": false,
      "inputs": [
        {
          "indexed": true,
          "internalType": "string",
          "name": "vin",
          "type": "string"
        }
      ],
      "name": "AddServiceData",
      "type": "event"
    },
    {
      "anonymous": false,
      "inputs": [
        {
          "indexed": true,
          "internalType": "address",
          "name": "shopAddress",
          "type": "address"
        },
        {
          "indexed": false,
          "internalType": "string",
          "name": "shopName",
          "type": "string"
        }
      ],
      "name": "CarShopRegistered",
      "type": "event"
    },
    {
      "inputs": [
        {
          "internalType": "address",
          "name": "",
          "type": "address"
        }
      ],
      "name": "carShops",
      "outputs": [
        {
          "internalType": "string",
          "name": "name",
          "type": "string"
        },
        {
          "internalType": "string",
          "name": "location",
          "type": "string"
        },
        {
          "internalType": "bool",
          "name": "verified",
          "type": "bool"
        }
      ],
      "stateMutability": "view",
      "type": "function"
    },
    {
      "inputs": [],
      "name": "manufacturer",
      "outputs": [
        {
          "internalType": "contract Manufacturer",
          "name": "",
          "type": "address"
        }
      ],
      "stateMutability": "view",
      "type": "function"
    },
    {
      "inputs": [
        {
          "internalType": "string",
          "name": "name",
          "type": "string"
        },
        {
          "internalType": "string",
          "name": "location",
          "type": "string"
        },
        {
          "internalType": "enum CarShops.Brands[]",
          "name": "brands",
          "type": "uint8[]"
        }
      ],
      "name": "registerCarShop",
      "outputs": [],
      "stateMutability": "nonpayable",
      "type": "function"
    },
    {
      "inputs": [
        {
          "internalType": "uint256",
          "name": "",
          "type": "uint256"
        }
      ],
      "name": "vehicleServices",
      "outputs": [
        {
          "internalType": "string",
          "name": "vin",
          "type": "string"
        },
        {
          "internalType": "uint256",
          "name": "date",
          "type": "uint256"
        },
        {
          "internalType": "address",
          "name": "who",
          "type": "address"
        },
        {
          "internalType": "uint256",
          "name": "mileage",
          "type": "uint256"
        }
      ],
      "stateMutability": "view",
      "type": "function"
    },
    {
      "inputs": [
        {
          "internalType": "string",
          "name": "vin",
          "type": "string"
        },
        {
          "internalType": "enum CarShops.Services[]",
          "name": "services",
          "type": "uint8[]"
        },
        {
          "internalType": "uint256",
          "name": "mileage",
          "type": "uint256"
        }
      ],
      "name": "writeServiceData",
      "outputs": [],
      "stateMutability": "nonpayable",
      "type": "function"
    }
  ],
  "bytecode": "0x60806040523480156200001157600080fd5b5060405162001595380380620015958339818101604052810190620000379190620000e8565b806000806101000a81548173ffffffffffffffffffffffffffffffffffffffff021916908373ffffffffffffffffffffffffffffffffffffffff160217905550506200011a565b600080fd5b600073ffffffffffffffffffffffffffffffffffffffff82169050919050565b6000620000b08262000083565b9050919050565b620000c281620000a3565b8114620000ce57600080fd5b50565b600081519050620000e281620000b7565b92915050565b6000602082840312156200010157620001006200007e565b5b60006200011184828501620000d1565b91505092915050565b61146b806200012a6000396000f3fe608060405234801561001057600080fd5b50600436106100575760003560e01c8063068de0dc1461005c57806313e735471461008f57806336d6f744146100ab57806374754282146100c7578063eb5015ac146100e5575b600080fd5b610076600480360381019061007191906108b5565b610117565b60405161008694939291906109c2565b60405180910390f35b6100a960048036038101906100a49190610c30565b6101ff565b005b6100c560048036038101906100c09190610dbf565b610323565b005b6100cf610577565b6040516100dc9190610ea9565b60405180910390f35b6100ff60048036038101906100fa9190610ef0565b61059b565b60405161010e93929190610f38565b60405180910390f35b6001818154811061012757600080fd5b906000526020600020906005020160009150905080600001805461014a90610fac565b80601f016020809104026020016040519081016040528092919081815260200182805461017690610fac565b80156101c35780601f10610198576101008083540402835291602001916101c3565b820191906000526020600020905b8154815290600101906020018083116101a657829003601f168201915b5050505050908060010154908060020160009054906101000a900473ffffffffffffffffffffffffffffffffffffffff16908060040154905084565b60006040518060800160405280858152602001848152602001838152602001821515815250600260003373ffffffffffffffffffffffffffffffffffffffff1673ffffffffffffffffffffffffffffffffffffffff1681526020019081526020016000206000820151816000019081610278919061117f565b50602082015181600101908161028e919061117f565b5060408201518160020190805190602001906102ab9291906106e2565b5060608201518160030160006101000a81548160ff0219169083151502179055509050503373ffffffffffffffffffffffffffffffffffffffff167f14c8be26db90eca667ef75f49c71aa741ef160b749a5509c6a70a93a84696e71856040516103159190611251565b60405180910390a250505050565b8260008060009054906101000a900473ffffffffffffffffffffffffffffffffffffffff1673ffffffffffffffffffffffffffffffffffffffff1663fce2ba7b836040518263ffffffff1660e01b81526004016103809190611251565b608060405180830381865afa15801561039d573d6000803e3d6000fd5b505050506040513d601f19601f820116820180604052508101906103c1919061131a565b606001519050600073ffffffffffffffffffffffffffffffffffffffff168173ffffffffffffffffffffffffffffffffffffffff1603610436576040517f08c379a000000000000000000000000000000000000000000000000000000000815260040161042d90611393565b60405180910390fd5b60016040518060a001604052808781526020014281526020013373ffffffffffffffffffffffffffffffffffffffff16815260200186815260200185815250908060018154018082558091505060019003906000526020600020906005020160009091909190915060008201518160000190816104b3919061117f565b506020820151816001015560408201518160020160006101000a81548173ffffffffffffffffffffffffffffffffffffffff021916908373ffffffffffffffffffffffffffffffffffffffff1602179055506060820151816003019080519060200190610521929190610798565b506080820151816004015550508460405161053c91906113ef565b60405180910390207f33269cc208e768b99243b788571632cffc6bb7b6e054335ac1e6cc107e44df8460405160405180910390a25050505050565b60008054906101000a900473ffffffffffffffffffffffffffffffffffffffff1681565b60026020528060005260406000206000915090508060000180546105be90610fac565b80601f01602080910402602001604051908101604052809291908181526020018280546105ea90610fac565b80156106375780601f1061060c57610100808354040283529160200191610637565b820191906000526020600020905b81548152906001019060200180831161061a57829003601f168201915b50505050509080600101805461064c90610fac565b80601f016020809104026020016040519081016040528092919081815260200182805461067890610fac565b80156106c55780601f1061069a576101008083540402835291602001916106c5565b820191906000526020600020905b8154815290600101906020018083116106a857829003601f168201915b5050505050908060030160009054906101000a900460ff16905083565b82805482825590600052602060002090601f016020900481019282156107875791602002820160005b8382111561075857835183826101000a81548160ff0219169083600581111561073757610736611406565b5b0217905550926020019260010160208160000104928301926001030261070b565b80156107855782816101000a81549060ff0219169055600101602081600001049283019260010302610758565b505b509050610794919061084e565b5090565b82805482825590600052602060002090601f0160209004810192821561083d5791602002820160005b8382111561080e57835183826101000a81548160ff021916908360048111156107ed576107ec611406565b5b021790555092602001926001016020816000010492830192600103026107c1565b801561083b5782816101000a81549060ff021916905560010160208160000104928301926001030261080e565b505b50905061084a919061084e565b5090565b5b8082111561086757600081600090555060010161084f565b5090565b6000604051905090565b600080fd5b600080fd5b6000819050919050565b6108928161087f565b811461089d57600080fd5b50565b6000813590506108af81610889565b92915050565b6000602082840312156108cb576108ca610875565b5b60006108d9848285016108a0565b91505092915050565b600081519050919050565b600082825260208201905092915050565b60005b8381101561091c578082015181840152602081019050610901565b60008484015250505050565b6000601f19601f8301169050919050565b6000610944826108e2565b61094e81856108ed565b935061095e8185602086016108fe565b61096781610928565b840191505092915050565b61097b8161087f565b82525050565b600073ffffffffffffffffffffffffffffffffffffffff82169050919050565b60006109ac82610981565b9050919050565b6109bc816109a1565b82525050565b600060808201905081810360008301526109dc8187610939565b90506109eb6020830186610972565b6109f860408301856109b3565b610a056060830184610972565b95945050505050565b600080fd5b600080fd5b7f4e487b7100000000000000000000000000000000000000000000000000000000600052604160045260246000fd5b610a5082610928565b810181811067ffffffffffffffff82111715610a6f57610a6e610a18565b5b80604052505050565b6000610a8261086b565b9050610a8e8282610a47565b919050565b600067ffffffffffffffff821115610aae57610aad610a18565b5b610ab782610928565b9050602081019050919050565b82818337600083830152505050565b6000610ae6610ae184610a93565b610a78565b905082815260208101848484011115610b0257610b01610a13565b5b610b0d848285610ac4565b509392505050565b600082601f830112610b2a57610b29610a0e565b5b8135610b3a848260208601610ad3565b91505092915050565b600067ffffffffffffffff821115610b5e57610b5d610a18565b5b602082029050602081019050919050565b600080fd5b60068110610b8157600080fd5b50565b600081359050610b9381610b74565b92915050565b6000610bac610ba784610b43565b610a78565b90508083825260208201905060208402830185811115610bcf57610bce610b6f565b5b835b81811015610bf85780610be48882610b84565b845260208401935050602081019050610bd1565b5050509392505050565b600082601f830112610c1757610c16610a0e565b5b8135610c27848260208601610b99565b91505092915050565b600080600060608486031215610c4957610c48610875565b5b600084013567ffffffffffffffff811115610c6757610c6661087a565b5b610c7386828701610b15565b935050602084013567ffffffffffffffff811115610c9457610c9361087a565b5b610ca086828701610b15565b925050604084013567ffffffffffffffff811115610cc157610cc061087a565b5b610ccd86828701610c02565b9150509250925092565b600067ffffffffffffffff821115610cf257610cf1610a18565b5b602082029050602081019050919050565b60058110610d1057600080fd5b50565b600081359050610d2281610d03565b92915050565b6000610d3b610d3684610cd7565b610a78565b90508083825260208201905060208402830185811115610d5e57610d5d610b6f565b5b835b81811015610d875780610d738882610d13565b845260208401935050602081019050610d60565b5050509392505050565b600082601f830112610da657610da5610a0e565b5b8135610db6848260208601610d28565b91505092915050565b600080600060608486031215610dd857610dd7610875565b5b600084013567ffffffffffffffff811115610df657610df561087a565b5b610e0286828701610b15565b935050602084013567ffffffffffffffff811115610e2357610e2261087a565b5b610e2f86828701610d91565b9250506040610e40868287016108a0565b9150509250925092565b6000819050919050565b6000610e6f610e6a610e6584610981565b610e4a565b610981565b9050919050565b6000610e8182610e54565b9050919050565b6000610e9382610e76565b9050919050565b610ea381610e88565b82525050565b6000602082019050610ebe6000830184610e9a565b92915050565b610ecd816109a1565b8114610ed857600080fd5b50565b600081359050610eea81610ec4565b92915050565b600060208284031215610f0657610f05610875565b5b6000610f1484828501610edb565b91505092915050565b60008115159050919050565b610f3281610f1d565b82525050565b60006060820190508181036000830152610f528186610939565b90508181036020830152610f668185610939565b9050610f756040830184610f29565b949350505050565b7f4e487b7100000000000000000000000000000000000000000000000000000000600052602260045260246000fd5b60006002820490506001821680610fc457607f821691505b602082108103610fd757610fd6610f7d565b5b50919050565b60008190508160005260206000209050919050565b60006020601f8301049050919050565b600082821b905092915050565b60006008830261103f7fffffffffffffffffffffffffffffffffffffffffffffffffffffffffffffffff82611002565b6110498683611002565b95508019841693508086168417925050509392505050565b600061107c6110776110728461087f565b610e4a565b61087f565b9050919050565b6000819050919050565b61109683611061565b6110aa6110a282611083565b84845461100f565b825550505050565b600090565b6110bf6110b2565b6110ca81848461108d565b505050565b5b818110156110ee576110e36000826110b7565b6001810190506110d0565b5050565b601f8211156111335761110481610fdd565b61110d84610ff2565b8101602085101561111c578190505b61113061112885610ff2565b8301826110cf565b50505b505050565b600082821c905092915050565b600061115660001984600802611138565b1980831691505092915050565b600061116f8383611145565b9150826002028217905092915050565b611188826108e2565b67ffffffffffffffff8111156111a1576111a0610a18565b5b6111ab8254610fac565b6111b68282856110f2565b600060209050601f8311600181146111e957600084156111d7578287015190505b6111e18582611163565b865550611249565b601f1984166111f786610fdd565b60005b8281101561121f578489015182556001820191506020850194506020810190506111fa565b8683101561123c5784890151611238601f891682611145565b8355505b6001600288020188555050505b505050505050565b6000602082019050818103600083015261126b8184610939565b905092915050565b600080fd5b60008151905061128781610889565b92915050565b60008151905061129c81610ec4565b92915050565b6000608082840312156112b8576112b7611273565b5b6112c26080610a78565b905060006112d284828501611278565b60008301525060206112e684828501611278565b60208301525060406112fa8482850161128d565b604083015250606061130e8482850161128d565b60608301525092915050565b6000608082840312156113305761132f610875565b5b600061133e848285016112a2565b91505092915050565b7f496e76616c69642056494e000000000000000000000000000000000000000000600082015250565b600061137d600b836108ed565b915061138882611347565b602082019050919050565b600060208201905081810360008301526113ac81611370565b9050919050565b600081905092915050565b60006113c9826108e2565b6113d381856113b3565b93506113e38185602086016108fe565b80840191505092915050565b60006113fb82846113be565b915081905092915050565b7f4e487b7100000000000000000000000000000000000000000000000000000000600052602160045260246000fdfea26469706673582212208bbb0a6f274427b84a3b0bc461e7f141898aa49c55666a427427d15fd756d21e64736f6c63430008180033",
  "linkReferences": {},
  "deployedLinkReferences": {}
}