{
  "_format": "hh-sol-artifact-1",
  "contractName": "CarShops",
  "sourceName": "contracts/CarShops.sol",
  "abi": [
    {
      "inputs": [
        {
          "internalType": "address",
          "name": "_manufacturer",
          "type": "address"
        }
      ],
      "stateMutability": "nonpayable",
      "type": "constructor"
    },
    {
      "anonymous": false,
      "inputs": [
        {
          "indexed": true,
          "internalType": "string",
          "name": "vin",
          "type": "string"
        }
      ],
      "name": "AddServiceData",
      "type": "event"
    },
    {
      "anonymous": false,
      "inputs": [
        {
          "indexed": true,
          "internalType": "address",
          "name": "shopAddress",
          "type": "address"
        },
        {
          "indexed": false,
          "internalType": "string",
          "name": "shopName",
          "type": "string"
        }
      ],
      "name": "CarShopRegistered",
      "type": "event"
    },
    {
      "inputs": [
        {
          "internalType": "address",
          "name": "",
          "type": "address"
        }
      ],
      "name": "carShops",
      "outputs": [
        {
          "internalType": "string",
          "name": "name",
          "type": "string"
        },
        {
          "internalType": "string",
          "name": "location",
          "type": "string"
        },
        {
          "internalType": "bool",
          "name": "verified",
          "type": "bool"
        }
      ],
      "stateMutability": "view",
      "type": "function"
    },
    {
      "inputs": [],
      "name": "getVehicleServiceData",
      "outputs": [
        {
          "components": [
            {
              "internalType": "string",
              "name": "vin",
              "type": "string"
            },
            {
              "internalType": "uint256",
              "name": "date",
              "type": "uint256"
            },
            {
              "internalType": "address",
              "name": "who",
              "type": "address"
            },
            {
              "internalType": "enum CarShops.Services[]",
              "name": "service",
              "type": "uint8[]"
            },
            {
              "internalType": "uint256",
              "name": "mileage",
              "type": "uint256"
            }
          ],
          "internalType": "struct CarShops.VehicleService[]",
          "name": "",
          "type": "tuple[]"
        }
      ],
      "stateMutability": "view",
      "type": "function"
    },
    {
      "inputs": [],
      "name": "manufacturer",
      "outputs": [
        {
          "internalType": "contract Manufacturer",
          "name": "",
          "type": "address"
        }
      ],
      "stateMutability": "view",
      "type": "function"
    },
    {
      "inputs": [
        {
          "internalType": "string",
          "name": "name",
          "type": "string"
        },
        {
          "internalType": "string",
          "name": "location",
          "type": "string"
        },
        {
          "internalType": "enum CarShops.Brands[]",
          "name": "brands",
          "type": "uint8[]"
        }
      ],
      "name": "registerCarShop",
      "outputs": [],
      "stateMutability": "nonpayable",
      "type": "function"
    },
    {
      "inputs": [
        {
          "internalType": "uint256",
          "name": "",
          "type": "uint256"
        }
      ],
      "name": "vehicleServices",
      "outputs": [
        {
          "internalType": "string",
          "name": "vin",
          "type": "string"
        },
        {
          "internalType": "uint256",
          "name": "date",
          "type": "uint256"
        },
        {
          "internalType": "address",
          "name": "who",
          "type": "address"
        },
        {
          "internalType": "uint256",
          "name": "mileage",
          "type": "uint256"
        }
      ],
      "stateMutability": "view",
      "type": "function"
    },
    {
      "inputs": [
        {
          "internalType": "string",
          "name": "vin",
          "type": "string"
        },
        {
          "internalType": "enum CarShops.Services[]",
          "name": "services",
          "type": "uint8[]"
        },
        {
          "internalType": "uint256",
          "name": "mileage",
          "type": "uint256"
        }
      ],
      "name": "writeServiceData",
      "outputs": [],
      "stateMutability": "nonpayable",
      "type": "function"
    }
  ],
  "bytecode": "0x60806040523480156200001157600080fd5b5060405162001bc038038062001bc08339818101604052810190620000379190620000e8565b806000806101000a81548173ffffffffffffffffffffffffffffffffffffffff021916908373ffffffffffffffffffffffffffffffffffffffff160217905550506200011a565b600080fd5b600073ffffffffffffffffffffffffffffffffffffffff82169050919050565b6000620000b08262000083565b9050919050565b620000c281620000a3565b8114620000ce57600080fd5b50565b600081519050620000e281620000b7565b92915050565b6000602082840312156200010157620001006200007e565b5b60006200011184828501620000d1565b91505092915050565b611a96806200012a6000396000f3fe608060405234801561001057600080fd5b50600436106100625760003560e01c8063068de0dc1461006757806313e735471461009a57806336d6f744146100b657806374754282146100d2578063e4de218e146100f0578063eb5015ac1461010e575b600080fd5b610081600480360381019061007c9190610bf0565b610140565b6040516100919493929190610cfd565b60405180910390f35b6100b460048036038101906100af9190610f6b565b610228565b005b6100d060048036038101906100cb91906110fa565b61034c565b005b6100da6106ca565b6040516100e791906111e4565b60405180910390f35b6100f86106ee565b60405161010591906114cc565b60405180910390f35b6101286004803603810190610123919061151a565b6108d6565b60405161013793929190611562565b60405180910390f35b6001818154811061015057600080fd5b9060005260206000209060050201600091509050806000018054610173906115d6565b80601f016020809104026020016040519081016040528092919081815260200182805461019f906115d6565b80156101ec5780601f106101c1576101008083540402835291602001916101ec565b820191906000526020600020905b8154815290600101906020018083116101cf57829003601f168201915b5050505050908060010154908060020160009054906101000a900473ffffffffffffffffffffffffffffffffffffffff16908060040154905084565b60006040518060800160405280858152602001848152602001838152602001821515815250600260003373ffffffffffffffffffffffffffffffffffffffff1673ffffffffffffffffffffffffffffffffffffffff16815260200190815260200160002060008201518160000190816102a191906117a9565b5060208201518160010190816102b791906117a9565b5060408201518160020190805190602001906102d4929190610a1d565b5060608201518160030160006101000a81548160ff0219169083151502179055509050503373ffffffffffffffffffffffffffffffffffffffff167f14c8be26db90eca667ef75f49c71aa741ef160b749a5509c6a70a93a84696e718560405161033e919061187b565b60405180910390a250505050565b8260008060009054906101000a900473ffffffffffffffffffffffffffffffffffffffff1673ffffffffffffffffffffffffffffffffffffffff1663fce2ba7b836040518263ffffffff1660e01b81526004016103a9919061187b565b608060405180830381865afa1580156103c6573d6000803e3d6000fd5b505050506040513d601f19601f820116820180604052508101906103ea9190611944565b606001519050600073ffffffffffffffffffffffffffffffffffffffff168173ffffffffffffffffffffffffffffffffffffffff160361045f576040517f08c379a0000000000000000000000000000000000000000000000000000000008152600401610456906119bd565b60405180910390fd5b60016040518060a001604052808781526020014281526020013373ffffffffffffffffffffffffffffffffffffffff16815260200186815260200185815250908060018154018082558091505060019003906000526020600020906005020160009091909190915060008201518160000190816104dc91906117a9565b506020820151816001015560408201518160020160006101000a81548173ffffffffffffffffffffffffffffffffffffffff021916908373ffffffffffffffffffffffffffffffffffffffff160217905550606082015181600301908051906020019061054a929190610ad3565b5060808201518160040155505060008054906101000a900473ffffffffffffffffffffffffffffffffffffffff1673ffffffffffffffffffffffffffffffffffffffff16637dc756088660008054906101000a900473ffffffffffffffffffffffffffffffffffffffff1673ffffffffffffffffffffffffffffffffffffffff1663fce2ba7b896040518263ffffffff1660e01b81526004016105ed919061187b565b608060405180830381865afa15801561060a573d6000803e3d6000fd5b505050506040513d601f19601f8201168201806040525081019061062e9190611944565b604001516040518363ffffffff1660e01b815260040161064f9291906119dd565b600060405180830381600087803b15801561066957600080fd5b505af115801561067d573d6000803e3d6000fd5b505050508460405161068f9190611a49565b60405180910390207f33269cc208e768b99243b788571632cffc6bb7b6e054335ac1e6cc107e44df8460405160405180910390a25050505050565b60008054906101000a900473ffffffffffffffffffffffffffffffffffffffff1681565b60606001805480602002602001604051908101604052809291908181526020016000905b828210156108cd57838290600052602060002090600502016040518060a0016040529081600082018054610745906115d6565b80601f0160208091040260200160405190810160405280929190818152602001828054610771906115d6565b80156107be5780601f10610793576101008083540402835291602001916107be565b820191906000526020600020905b8154815290600101906020018083116107a157829003601f168201915b50505050508152602001600182015481526020016002820160009054906101000a900473ffffffffffffffffffffffffffffffffffffffff1673ffffffffffffffffffffffffffffffffffffffff1673ffffffffffffffffffffffffffffffffffffffff168152602001600382018054806020026020016040519081016040528092919081815260200182805480156108ab57602002820191906000526020600020906000905b82829054906101000a900460ff166004811115610885576108846112bf565b5b815260200190600101906020826000010492830192600103820291508084116108655790505b5050505050815260200160048201548152505081526020019060010190610712565b50505050905090565b60026020528060005260406000206000915090508060000180546108f9906115d6565b80601f0160208091040260200160405190810160405280929190818152602001828054610925906115d6565b80156109725780601f1061094757610100808354040283529160200191610972565b820191906000526020600020905b81548152906001019060200180831161095557829003601f168201915b505050505090806001018054610987906115d6565b80601f01602080910402602001604051908101604052809291908181526020018280546109b3906115d6565b8015610a005780601f106109d557610100808354040283529160200191610a00565b820191906000526020600020905b8154815290600101906020018083116109e357829003601f168201915b5050505050908060030160009054906101000a900460ff16905083565b82805482825590600052602060002090601f01602090048101928215610ac25791602002820160005b83821115610a9357835183826101000a81548160ff02191690836005811115610a7257610a716112bf565b5b02179055509260200192600101602081600001049283019260010302610a46565b8015610ac05782816101000a81549060ff0219169055600101602081600001049283019260010302610a93565b505b509050610acf9190610b89565b5090565b82805482825590600052602060002090601f01602090048101928215610b785791602002820160005b83821115610b4957835183826101000a81548160ff02191690836004811115610b2857610b276112bf565b5b02179055509260200192600101602081600001049283019260010302610afc565b8015610b765782816101000a81549060ff0219169055600101602081600001049283019260010302610b49565b505b509050610b859190610b89565b5090565b5b80821115610ba2576000816000905550600101610b8a565b5090565b6000604051905090565b600080fd5b600080fd5b6000819050919050565b610bcd81610bba565b8114610bd857600080fd5b50565b600081359050610bea81610bc4565b92915050565b600060208284031215610c0657610c05610bb0565b5b6000610c1484828501610bdb565b91505092915050565b600081519050919050565b600082825260208201905092915050565b60005b83811015610c57578082015181840152602081019050610c3c565b60008484015250505050565b6000601f19601f8301169050919050565b6000610c7f82610c1d565b610c898185610c28565b9350610c99818560208601610c39565b610ca281610c63565b840191505092915050565b610cb681610bba565b82525050565b600073ffffffffffffffffffffffffffffffffffffffff82169050919050565b6000610ce782610cbc565b9050919050565b610cf781610cdc565b82525050565b60006080820190508181036000830152610d178187610c74565b9050610d266020830186610cad565b610d336040830185610cee565b610d406060830184610cad565b95945050505050565b600080fd5b600080fd5b7f4e487b7100000000000000000000000000000000000000000000000000000000600052604160045260246000fd5b610d8b82610c63565b810181811067ffffffffffffffff82111715610daa57610da9610d53565b5b80604052505050565b6000610dbd610ba6565b9050610dc98282610d82565b919050565b600067ffffffffffffffff821115610de957610de8610d53565b5b610df282610c63565b9050602081019050919050565b82818337600083830152505050565b6000610e21610e1c84610dce565b610db3565b905082815260208101848484011115610e3d57610e3c610d4e565b5b610e48848285610dff565b509392505050565b600082601f830112610e6557610e64610d49565b5b8135610e75848260208601610e0e565b91505092915050565b600067ffffffffffffffff821115610e9957610e98610d53565b5b602082029050602081019050919050565b600080fd5b60068110610ebc57600080fd5b50565b600081359050610ece81610eaf565b92915050565b6000610ee7610ee284610e7e565b610db3565b90508083825260208201905060208402830185811115610f0a57610f09610eaa565b5b835b81811015610f335780610f1f8882610ebf565b845260208401935050602081019050610f0c565b5050509392505050565b600082601f830112610f5257610f51610d49565b5b8135610f62848260208601610ed4565b91505092915050565b600080600060608486031215610f8457610f83610bb0565b5b600084013567ffffffffffffffff811115610fa257610fa1610bb5565b5b610fae86828701610e50565b935050602084013567ffffffffffffffff811115610fcf57610fce610bb5565b5b610fdb86828701610e50565b925050604084013567ffffffffffffffff811115610ffc57610ffb610bb5565b5b61100886828701610f3d565b9150509250925092565b600067ffffffffffffffff82111561102d5761102c610d53565b5b602082029050602081019050919050565b6005811061104b57600080fd5b50565b60008135905061105d8161103e565b92915050565b600061107661107184611012565b610db3565b9050808382526020820190506020840283018581111561109957611098610eaa565b5b835b818110156110c257806110ae888261104e565b84526020840193505060208101905061109b565b5050509392505050565b600082601f8301126110e1576110e0610d49565b5b81356110f1848260208601611063565b91505092915050565b60008060006060848603121561111357611112610bb0565b5b600084013567ffffffffffffffff81111561113157611130610bb5565b5b61113d86828701610e50565b935050602084013567ffffffffffffffff81111561115e5761115d610bb5565b5b61116a868287016110cc565b925050604061117b86828701610bdb565b9150509250925092565b6000819050919050565b60006111aa6111a56111a084610cbc565b611185565b610cbc565b9050919050565b60006111bc8261118f565b9050919050565b60006111ce826111b1565b9050919050565b6111de816111c3565b82525050565b60006020820190506111f960008301846111d5565b92915050565b600081519050919050565b600082825260208201905092915050565b6000819050602082019050919050565b600082825260208201905092915050565b600061124782610c1d565b611251818561122b565b9350611261818560208601610c39565b61126a81610c63565b840191505092915050565b61127e81610bba565b82525050565b61128d81610cdc565b82525050565b600081519050919050565b600082825260208201905092915050565b6000819050602082019050919050565b7f4e487b7100000000000000000000000000000000000000000000000000000000600052602160045260246000fd5b600581106112ff576112fe6112bf565b5b50565b6000819050611310826112ee565b919050565b600061132082611302565b9050919050565b61133081611315565b82525050565b60006113428383611327565b60208301905092915050565b6000602082019050919050565b600061136682611293565b611370818561129e565b935061137b836112af565b8060005b838110156113ac5781516113938882611336565b975061139e8361134e565b92505060018101905061137f565b5085935050505092915050565b600060a08301600083015184820360008601526113d6828261123c565b91505060208301516113eb6020860182611275565b5060408301516113fe6040860182611284565b5060608301518482036060860152611416828261135b565b915050608083015161142b6080860182611275565b508091505092915050565b600061144283836113b9565b905092915050565b6000602082019050919050565b6000611462826111ff565b61146c818561120a565b93508360208202850161147e8561121b565b8060005b858110156114ba578484038952815161149b8582611436565b94506114a68361144a565b925060208a01995050600181019050611482565b50829750879550505050505092915050565b600060208201905081810360008301526114e68184611457565b905092915050565b6114f781610cdc565b811461150257600080fd5b50565b600081359050611514816114ee565b92915050565b6000602082840312156115305761152f610bb0565b5b600061153e84828501611505565b91505092915050565b60008115159050919050565b61155c81611547565b82525050565b6000606082019050818103600083015261157c8186610c74565b905081810360208301526115908185610c74565b905061159f6040830184611553565b949350505050565b7f4e487b7100000000000000000000000000000000000000000000000000000000600052602260045260246000fd5b600060028204905060018216806115ee57607f821691505b602082108103611601576116006115a7565b5b50919050565b60008190508160005260206000209050919050565b60006020601f8301049050919050565b600082821b905092915050565b6000600883026116697fffffffffffffffffffffffffffffffffffffffffffffffffffffffffffffffff8261162c565b611673868361162c565b95508019841693508086168417925050509392505050565b60006116a66116a161169c84610bba565b611185565b610bba565b9050919050565b6000819050919050565b6116c08361168b565b6116d46116cc826116ad565b848454611639565b825550505050565b600090565b6116e96116dc565b6116f48184846116b7565b505050565b5b818110156117185761170d6000826116e1565b6001810190506116fa565b5050565b601f82111561175d5761172e81611607565b6117378461161c565b81016020851015611746578190505b61175a6117528561161c565b8301826116f9565b50505b505050565b600082821c905092915050565b600061178060001984600802611762565b1980831691505092915050565b6000611799838361176f565b9150826002028217905092915050565b6117b282610c1d565b67ffffffffffffffff8111156117cb576117ca610d53565b5b6117d582546115d6565b6117e082828561171c565b600060209050601f8311600181146118135760008415611801578287015190505b61180b858261178d565b865550611873565b601f19841661182186611607565b60005b8281101561184957848901518255600182019150602085019450602081019050611824565b868310156118665784890151611862601f89168261176f565b8355505b6001600288020188555050505b505050505050565b600060208201905081810360008301526118958184610c74565b905092915050565b600080fd5b6000815190506118b181610bc4565b92915050565b6000815190506118c6816114ee565b92915050565b6000608082840312156118e2576118e161189d565b5b6118ec6080610db3565b905060006118fc848285016118a2565b6000830152506020611910848285016118a2565b6020830152506040611924848285016118b7565b6040830152506060611938848285016118b7565b60608301525092915050565b60006080828403121561195a57611959610bb0565b5b6000611968848285016118cc565b91505092915050565b7f496e76616c69642056494e000000000000000000000000000000000000000000600082015250565b60006119a7600b83610c28565b91506119b282611971565b602082019050919050565b600060208201905081810360008301526119d68161199a565b9050919050565b600060408201905081810360008301526119f78185610c74565b9050611a066020830184610cee565b9392505050565b600081905092915050565b6000611a2382610c1d565b611a2d8185611a0d565b9350611a3d818560208601610c39565b80840191505092915050565b6000611a558284611a18565b91508190509291505056fea2646970667358221220e41d72cd38dff8a1f07364ccf8aaee3a51c3d130bf2f633a3eff7a08aa9c8b1c64736f6c63430008180033",
  "linkReferences": {},
  "deployedLinkReferences": {}
}