{
  "_format": "hh-sol-artifact-1",
  "contractName": "DataVerifier",
  "sourceName": "contracts/Manufacturer.sol",
  "abi": [
    {
      "inputs": [
        {
          "internalType": "address",
          "name": "_verifier",
          "type": "address"
        }
      ],
      "stateMutability": "nonpayable",
      "type": "constructor"
    },
    {
      "inputs": [],
      "name": "verifier",
      "outputs": [
        {
          "internalType": "address",
          "name": "",
          "type": "address"
        }
      ],
      "stateMutability": "view",
      "type": "function"
    },
    {
      "inputs": [
        {
          "internalType": "string",
          "name": "data",
          "type": "string"
        }
      ],
      "name": "verifyData",
      "outputs": [
        {
          "internalType": "bool",
          "name": "",
          "type": "bool"
        }
      ],
      "stateMutability": "view",
      "type": "function"
    }
  ],
  "bytecode": "0x608060405234801561001057600080fd5b5060405161043a38038061043a833981810160405281019061003291906100db565b806000806101000a81548173ffffffffffffffffffffffffffffffffffffffff021916908373ffffffffffffffffffffffffffffffffffffffff16021790555050610108565b600080fd5b600073ffffffffffffffffffffffffffffffffffffffff82169050919050565b60006100a88261007d565b9050919050565b6100b88161009d565b81146100c357600080fd5b50565b6000815190506100d5816100af565b92915050565b6000602082840312156100f1576100f0610078565b5b60006100ff848285016100c6565b91505092915050565b610323806101176000396000f3fe608060405234801561001057600080fd5b50600436106100365760003560e01c80632b7ac3f31461003b5780634fd6a64814610059575b600080fd5b610043610089565b60405161005091906100f9565b60405180910390f35b610073600480360381019061006e919061026e565b6100ad565b60405161008091906102d2565b60405180910390f35b60008054906101000a900473ffffffffffffffffffffffffffffffffffffffff1681565b600060019050919050565b600073ffffffffffffffffffffffffffffffffffffffff82169050919050565b60006100e3826100b8565b9050919050565b6100f3816100d8565b82525050565b600060208201905061010e60008301846100ea565b92915050565b6000604051905090565b600080fd5b600080fd5b600080fd5b600080fd5b6000601f19601f8301169050919050565b7f4e487b7100000000000000000000000000000000000000000000000000000000600052604160045260246000fd5b61017b82610132565b810181811067ffffffffffffffff8211171561019a57610199610143565b5b80604052505050565b60006101ad610114565b90506101b98282610172565b919050565b600067ffffffffffffffff8211156101d9576101d8610143565b5b6101e282610132565b9050602081019050919050565b82818337600083830152505050565b600061021161020c846101be565b6101a3565b90508281526020810184848401111561022d5761022c61012d565b5b6102388482856101ef565b509392505050565b600082601f83011261025557610254610128565b5b81356102658482602086016101fe565b91505092915050565b6000602082840312156102845761028361011e565b5b600082013567ffffffffffffffff8111156102a2576102a1610123565b5b6102ae84828501610240565b91505092915050565b60008115159050919050565b6102cc816102b7565b82525050565b60006020820190506102e760008301846102c3565b9291505056fea26469706673582212201004d9f5309536dc984a49264c121f1b2827d2b7e8c943053c1dbf8d79e4dca664736f6c63430008180033",
  "linkReferences": {},
  "deployedLinkReferences": {}
}