{
  "_format": "hh-sol-artifact-1",
  "contractName": "DataVerifier",
  "sourceName": "contracts/Manufacturer.sol",
  "abi": [
    {
      "inputs": [
        {
          "internalType": "address",
          "name": "_verifier",
          "type": "address"
        }
      ],
      "stateMutability": "nonpayable",
      "type": "constructor"
    },
    {
      "inputs": [],
      "name": "DataNotVerified",
      "type": "error"
    },
    {
      "inputs": [
        {
          "internalType": "string",
          "name": "vin",
          "type": "string"
        },
        {
          "internalType": "address",
          "name": "owner",
          "type": "address"
        }
      ],
      "name": "changeHash",
      "outputs": [],
      "stateMutability": "nonpayable",
      "type": "function"
    },
    {
      "inputs": [
        {
          "internalType": "string",
          "name": "vin",
          "type": "string"
        },
        {
          "internalType": "address",
          "name": "owner",
          "type": "address"
        }
      ],
      "name": "createHash",
      "outputs": [],
      "stateMutability": "nonpayable",
      "type": "function"
    },
    {
      "inputs": [
        {
          "internalType": "bytes32",
          "name": "",
          "type": "bytes32"
        }
      ],
      "name": "hashes",
      "outputs": [
        {
          "internalType": "bool",
          "name": "",
          "type": "bool"
        }
      ],
      "stateMutability": "view",
      "type": "function"
    },
    {
      "inputs": [],
      "name": "verifier",
      "outputs": [
        {
          "internalType": "address",
          "name": "",
          "type": "address"
        }
      ],
      "stateMutability": "view",
      "type": "function"
    },
    {
      "inputs": [
        {
          "internalType": "string",
          "name": "vin",
          "type": "string"
        },
        {
          "internalType": "address",
          "name": "owner",
          "type": "address"
        }
      ],
      "name": "verifyData",
      "outputs": [
        {
          "internalType": "bool",
          "name": "",
          "type": "bool"
        }
      ],
      "stateMutability": "view",
      "type": "function"
    }
  ],
  "bytecode": "0x608060405234801561001057600080fd5b50604051610795380380610795833981810160405281019061003291906100db565b806000806101000a81548173ffffffffffffffffffffffffffffffffffffffff021916908373ffffffffffffffffffffffffffffffffffffffff16021790555050610108565b600080fd5b600073ffffffffffffffffffffffffffffffffffffffff82169050919050565b60006100a88261007d565b9050919050565b6100b88161009d565b81146100c357600080fd5b50565b6000815190506100d5816100af565b92915050565b6000602082840312156100f1576100f0610078565b5b60006100ff848285016100c6565b91505092915050565b61067e806101176000396000f3fe608060405234801561001057600080fd5b50600436106100575760003560e01c80632b7ac3f31461005c5780633e0a0fa31461007a5780637dc7560814610096578063b75dacc8146100c6578063d658d2e9146100e2575b600080fd5b610064610112565b60405161007191906102d1565b60405180910390f35b610094600480360381019061008f9190610472565b610136565b005b6100b060048036038101906100ab9190610472565b61018d565b6040516100bd91906104e9565b60405180910390f35b6100e060048036038101906100db9190610472565b610218565b005b6100fc60048036038101906100f7919061053a565b610270565b60405161010991906104e9565b60405180910390f35b60008054906101000a900473ffffffffffffffffffffffffffffffffffffffff1681565b6001806000848460405160200161014e929190610620565b60405160208183030381529060405280519060200120815260200190815260200160002060006101000a81548160ff0219169083151502179055505050565b60006001600084846040516020016101a6929190610620565b60405160208183030381529060405280519060200120815260200190815260200160002060009054906101000a900460ff1661020e576040517f40ef650200000000000000000000000000000000000000000000000000000000815260040160405180910390fd5b6001905092915050565b6000600160008484604051602001610231929190610620565b60405160208183030381529060405280519060200120815260200190815260200160002060006101000a81548160ff0219169083151502179055505050565b60016020528060005260406000206000915054906101000a900460ff1681565b600073ffffffffffffffffffffffffffffffffffffffff82169050919050565b60006102bb82610290565b9050919050565b6102cb816102b0565b82525050565b60006020820190506102e660008301846102c2565b92915050565b6000604051905090565b600080fd5b600080fd5b600080fd5b600080fd5b6000601f19601f8301169050919050565b7f4e487b7100000000000000000000000000000000000000000000000000000000600052604160045260246000fd5b6103538261030a565b810181811067ffffffffffffffff821117156103725761037161031b565b5b80604052505050565b60006103856102ec565b9050610391828261034a565b919050565b600067ffffffffffffffff8211156103b1576103b061031b565b5b6103ba8261030a565b9050602081019050919050565b82818337600083830152505050565b60006103e96103e484610396565b61037b565b90508281526020810184848401111561040557610404610305565b5b6104108482856103c7565b509392505050565b600082601f83011261042d5761042c610300565b5b813561043d8482602086016103d6565b91505092915050565b61044f816102b0565b811461045a57600080fd5b50565b60008135905061046c81610446565b92915050565b60008060408385031215610489576104886102f6565b5b600083013567ffffffffffffffff8111156104a7576104a66102fb565b5b6104b385828601610418565b92505060206104c48582860161045d565b9150509250929050565b60008115159050919050565b6104e3816104ce565b82525050565b60006020820190506104fe60008301846104da565b92915050565b6000819050919050565b61051781610504565b811461052257600080fd5b50565b6000813590506105348161050e565b92915050565b6000602082840312156105505761054f6102f6565b5b600061055e84828501610525565b91505092915050565b600081519050919050565b600081905092915050565b60005b8381101561059b578082015181840152602081019050610580565b60008484015250505050565b60006105b282610567565b6105bc8185610572565b93506105cc81856020860161057d565b80840191505092915050565b60008160601b9050919050565b60006105f0826105d8565b9050919050565b6000610602826105e5565b9050919050565b61061a610615826102b0565b6105f7565b82525050565b600061062c82856105a7565b91506106388284610609565b601482019150819050939250505056fea264697066735822122068228a29ca4bbb2e98e467c74ec67a40d79929d8707dd1cc12f20a09c0d4830364736f6c63430008180033",
  "linkReferences": {},
  "deployedLinkReferences": {}
}