{
  "_format": "hh-sol-artifact-1",
  "contractName": "Manufacturer",
  "sourceName": "contracts/Manufacturer.sol",
  "abi": [
    {
      "inputs": [
        {
          "internalType": "address",
          "name": "_verifierContract",
          "type": "address"
        },
        {
          "internalType": "address",
          "name": "owner",
          "type": "address"
        }
      ],
      "stateMutability": "nonpayable",
      "type": "constructor"
    },
    {
      "inputs": [],
      "name": "InvalidProductionDate",
      "type": "error"
    },
    {
      "inputs": [],
      "name": "InvalidVIN",
      "type": "error"
    },
    {
      "inputs": [],
      "name": "NotApprovedToChangeOwnership",
      "type": "error"
    },
    {
      "inputs": [
        {
          "internalType": "address",
          "name": "owner",
          "type": "address"
        }
      ],
      "name": "OwnableInvalidOwner",
      "type": "error"
    },
    {
      "inputs": [
        {
          "internalType": "address",
          "name": "account",
          "type": "address"
        }
      ],
      "name": "OwnableUnauthorizedAccount",
      "type": "error"
    },
    {
      "anonymous": false,
      "inputs": [
        {
          "indexed": false,
          "internalType": "string",
          "name": "vin",
          "type": "string"
        }
      ],
      "name": "CarInfoChanged",
      "type": "event"
    },
    {
      "anonymous": false,
      "inputs": [
        {
          "indexed": true,
          "internalType": "string",
          "name": "vin",
          "type": "string"
        },
        {
          "indexed": false,
          "internalType": "bool",
          "name": "isValid",
          "type": "bool"
        }
      ],
      "name": "DataVerified",
      "type": "event"
    },
    {
      "anonymous": false,
      "inputs": [
        {
          "indexed": true,
          "internalType": "address",
          "name": "newOwner",
          "type": "address"
        }
      ],
      "name": "NewOwner",
      "type": "event"
    },
    {
      "anonymous": false,
      "inputs": [
        {
          "indexed": true,
          "internalType": "address",
          "name": "wallet",
          "type": "address"
        },
        {
          "indexed": false,
          "internalType": "address",
          "name": "owner",
          "type": "address"
        }
      ],
      "name": "NewWalletCreated",
      "type": "event"
    },
    {
      "anonymous": false,
      "inputs": [
        {
          "indexed": true,
          "internalType": "address",
          "name": "previousOwner",
          "type": "address"
        },
        {
          "indexed": true,
          "internalType": "address",
          "name": "newOwner",
          "type": "address"
        }
      ],
      "name": "OwnershipTransferred",
      "type": "event"
    },
    {
      "anonymous": false,
      "inputs": [
        {
          "indexed": true,
          "internalType": "string",
          "name": "vin",
          "type": "string"
        },
        {
          "indexed": false,
          "internalType": "uint256",
          "name": "productionDate",
          "type": "uint256"
        },
        {
          "indexed": false,
          "internalType": "uint256",
          "name": "initialMileage",
          "type": "uint256"
        },
        {
          "indexed": false,
          "internalType": "address",
          "name": "wallet",
          "type": "address"
        }
      ],
      "name": "VehicleProduced",
      "type": "event"
    },
    {
      "inputs": [
        {
          "internalType": "string",
          "name": "vin",
          "type": "string"
        },
        {
          "internalType": "address",
          "name": "newOwner",
          "type": "address"
        }
      ],
      "name": "approveOwnership",
      "outputs": [],
      "stateMutability": "nonpayable",
      "type": "function"
    },
    {
      "inputs": [
        {
          "internalType": "string",
          "name": "vin",
          "type": "string"
        },
        {
          "internalType": "uint256",
          "name": "productionDate",
          "type": "uint256"
        },
        {
          "internalType": "uint256",
          "name": "initialMileage",
          "type": "uint256"
        }
      ],
      "name": "changeCarInfo",
      "outputs": [],
      "stateMutability": "nonpayable",
      "type": "function"
    },
    {
      "inputs": [
        {
          "internalType": "string",
          "name": "vin",
          "type": "string"
        }
      ],
      "name": "getVehicleData",
      "outputs": [
        {
          "components": [
            {
              "internalType": "uint256",
              "name": "productionDate",
              "type": "uint256"
            },
            {
              "internalType": "uint256",
              "name": "initialMileage",
              "type": "uint256"
            },
            {
              "internalType": "address",
              "name": "owner",
              "type": "address"
            },
            {
              "internalType": "address",
              "name": "wallet",
              "type": "address"
            }
          ],
          "internalType": "struct Manufacturer.Vehicle",
          "name": "",
          "type": "tuple"
        }
      ],
      "stateMutability": "view",
      "type": "function"
    },
    {
      "inputs": [],
      "name": "owner",
      "outputs": [
        {
          "internalType": "address",
          "name": "",
          "type": "address"
        }
      ],
      "stateMutability": "view",
      "type": "function"
    },
    {
      "inputs": [
        {
          "internalType": "string",
          "name": "vin",
          "type": "string"
        },
        {
          "internalType": "uint256",
          "name": "productionDate",
          "type": "uint256"
        },
        {
          "internalType": "address",
          "name": "owner",
          "type": "address"
        },
        {
          "internalType": "uint256",
          "name": "initialMileage",
          "type": "uint256"
        }
      ],
      "name": "produceVehicle",
      "outputs": [],
      "stateMutability": "nonpayable",
      "type": "function"
    },
    {
      "inputs": [],
      "name": "renounceOwnership",
      "outputs": [],
      "stateMutability": "nonpayable",
      "type": "function"
    },
    {
      "inputs": [
        {
          "internalType": "address",
          "name": "newOwner",
          "type": "address"
        }
      ],
      "name": "transferOwnership",
      "outputs": [],
      "stateMutability": "nonpayable",
      "type": "function"
    },
    {
      "inputs": [
        {
          "internalType": "string",
          "name": "",
          "type": "string"
        }
      ],
      "name": "vehicles",
      "outputs": [
        {
          "internalType": "uint256",
          "name": "productionDate",
          "type": "uint256"
        },
        {
          "internalType": "uint256",
          "name": "initialMileage",
          "type": "uint256"
        },
        {
          "internalType": "address",
          "name": "owner",
          "type": "address"
        },
        {
          "internalType": "address",
          "name": "wallet",
          "type": "address"
        }
      ],
      "stateMutability": "view",
      "type": "function"
    },
    {
      "inputs": [],
      "name": "verifierContract",
      "outputs": [
        {
          "internalType": "address",
          "name": "",
          "type": "address"
        }
      ],
      "stateMutability": "view",
      "type": "function"
    },
    {
      "inputs": [
        {
          "internalType": "string",
          "name": "vin",
          "type": "string"
        },
        {
          "internalType": "string",
          "name": "data",
          "type": "string"
        }
      ],
      "name": "verifyData",
      "outputs": [],
      "stateMutability": "nonpayable",
      "type": "function"
    }
  ],
  "bytecode": "0x60806040523480156200001157600080fd5b5060405162001d9238038062001d92833981810160405281019062000037919062000236565b80600073ffffffffffffffffffffffffffffffffffffffff168173ffffffffffffffffffffffffffffffffffffffff1603620000ad5760006040517f1e4fbdf7000000000000000000000000000000000000000000000000000000008152600401620000a491906200028e565b60405180910390fd5b620000be816200010860201b60201c565b5081600160006101000a81548173ffffffffffffffffffffffffffffffffffffffff021916908373ffffffffffffffffffffffffffffffffffffffff1602179055505050620002ab565b60008060009054906101000a900473ffffffffffffffffffffffffffffffffffffffff169050816000806101000a81548173ffffffffffffffffffffffffffffffffffffffff021916908373ffffffffffffffffffffffffffffffffffffffff1602179055508173ffffffffffffffffffffffffffffffffffffffff168173ffffffffffffffffffffffffffffffffffffffff167f8be0079c531659141344cd1fd0a4f28419497f9722a3daafe3b4186f6b6457e060405160405180910390a35050565b600080fd5b600073ffffffffffffffffffffffffffffffffffffffff82169050919050565b6000620001fe82620001d1565b9050919050565b6200021081620001f1565b81146200021c57600080fd5b50565b600081519050620002308162000205565b92915050565b6000806040838503121562000250576200024f620001cc565b5b600062000260858286016200021f565b925050602062000273858286016200021f565b9150509250929050565b6200028881620001f1565b82525050565b6000602082019050620002a560008301846200027d565b92915050565b611ad780620002bb6000396000f3fe60806040523480156200001157600080fd5b5060043610620000ac5760003560e01c8063976de5c5116200006f578063976de5c5146200013f578063cf6956881462000178578063f2fde38b146200019a578063fc9d753a14620001ba578063fce2ba7b14620001da57620000ac565b80630d94fb5f14620000b15780631d716d5f14620000d1578063715018a614620000f15780638020ccb614620000fd5780638da5cb5b146200011d575b600080fd5b620000cf6004803603810190620000c9919062000f0a565b62000210565b005b620000ef6004803603810190620000e9919062000fab565b620003ae565b005b620000fb62000575565b005b6200011b600480360381019062000115919062001026565b6200058d565b005b6200012762000688565b604051620001369190620010bc565b60405180910390f35b6200015d6004803603810190620001579190620010d9565b620006b1565b6040516200016f94939291906200113b565b60405180910390f35b6200018262000737565b604051620001919190620010bc565b60405180910390f35b620001b86004803603810190620001b2919062001188565b6200075d565b005b620001d86004803603810190620001d29190620011ba565b620007ea565b005b620001f86004803603810190620001f29190620010d9565b620009de565b604051620002079190620012ca565b60405180910390f35b60006200021d83620009de565b905060118351146200025b576040517f56c74b3c00000000000000000000000000000000000000000000000000000000815260040160405180910390fd5b3373ffffffffffffffffffffffffffffffffffffffff16816040015173ffffffffffffffffffffffffffffffffffffffff1614158015620002cc57503373ffffffffffffffffffffffffffffffffffffffff16816060015173ffffffffffffffffffffffffffffffffffffffff1614155b1562000304576040517f6bc987fd00000000000000000000000000000000000000000000000000000000815260040160405180910390fd5b8160028460405162000317919062001360565b908152602001604051809103902060020160006101000a81548173ffffffffffffffffffffffffffffffffffffffff021916908373ffffffffffffffffffffffffffffffffffffffff1602179055508173ffffffffffffffffffffffffffffffffffffffff167f3edd90e7770f06fafde38004653b33870066c33bfc923ff6102acd601f85dfbc60405160405180910390a2505050565b6011835114620003ea576040517f56c74b3c00000000000000000000000000000000000000000000000000000000815260040160405180910390fd5b4282111562000425576040517f255ee82700000000000000000000000000000000000000000000000000000000815260040160405180910390fd5b60405180608001604052808381526020018281526020013373ffffffffffffffffffffffffffffffffffffffff1681526020013373ffffffffffffffffffffffffffffffffffffffff1681525060028460405162000484919062001360565b9081526020016040518091039020600082015181600001556020820151816001015560408201518160020160006101000a81548173ffffffffffffffffffffffffffffffffffffffff021916908373ffffffffffffffffffffffffffffffffffffffff16021790555060608201518160030160006101000a81548173ffffffffffffffffffffffffffffffffffffffff021916908373ffffffffffffffffffffffffffffffffffffffff1602179055509050507fd02ad6efe924eb3fedae52dcbf8ba528c69451f3e2d3ec7067b6960dd3ff48e283604051620005689190620013cb565b60405180910390a1505050565b6200057f62000ada565b6200058b600062000b6a565b565b6000600160009054906101000a900473ffffffffffffffffffffffffffffffffffffffff1673ffffffffffffffffffffffffffffffffffffffff16634fd6a648836040518263ffffffff1660e01b8152600401620005ec9190620013cb565b602060405180830381865afa1580156200060a573d6000803e3d6000fd5b505050506040513d601f19601f820116820180604052508101906200063091906200142c565b90508260405162000642919062001360565b60405180910390207f09e9b5d6d67275a5e11e606ba9ec755579a1814af62c7fe6d3bf4df19d52fa22826040516200067b91906200146f565b60405180910390a2505050565b60008060009054906101000a900473ffffffffffffffffffffffffffffffffffffffff16905090565b6002818051602081018201805184825260208301602085012081835280955050505050506000915090508060000154908060010154908060020160009054906101000a900473ffffffffffffffffffffffffffffffffffffffff16908060030160009054906101000a900473ffffffffffffffffffffffffffffffffffffffff16905084565b600160009054906101000a900473ffffffffffffffffffffffffffffffffffffffff1681565b6200076762000ada565b600073ffffffffffffffffffffffffffffffffffffffff168173ffffffffffffffffffffffffffffffffffffffff1603620007dc5760006040517f1e4fbdf7000000000000000000000000000000000000000000000000000000008152600401620007d39190620010bc565b60405180910390fd5b620007e78162000b6a565b50565b601184511462000826576040517f56c74b3c00000000000000000000000000000000000000000000000000000000815260040160405180910390fd5b4283111562000861576040517f255ee82700000000000000000000000000000000000000000000000000000000815260040160405180910390fd5b60006200086e3362000c2e565b905060405180608001604052808581526020018381526020018473ffffffffffffffffffffffffffffffffffffffff1681526020018273ffffffffffffffffffffffffffffffffffffffff16815250600286604051620008cf919062001360565b9081526020016040518091039020600082015181600001556020820151816001015560408201518160020160006101000a81548173ffffffffffffffffffffffffffffffffffffffff021916908373ffffffffffffffffffffffffffffffffffffffff16021790555060608201518160030160006101000a81548173ffffffffffffffffffffffffffffffffffffffff021916908373ffffffffffffffffffffffffffffffffffffffff1602179055509050508460405162000992919062001360565b60405180910390207f8d92a6b0d7a25576a1a8f61ba8f282f9735bb4ec5237c707207b1445d1059954858484604051620009cf939291906200148c565b60405180910390a25050505050565b620009e862000ccd565b600282604051620009fa919062001360565b908152602001604051809103902060405180608001604052908160008201548152602001600182015481526020016002820160009054906101000a900473ffffffffffffffffffffffffffffffffffffffff1673ffffffffffffffffffffffffffffffffffffffff1673ffffffffffffffffffffffffffffffffffffffff1681526020016003820160009054906101000a900473ffffffffffffffffffffffffffffffffffffffff1673ffffffffffffffffffffffffffffffffffffffff1673ffffffffffffffffffffffffffffffffffffffff16815250509050919050565b62000ae462000cc5565b73ffffffffffffffffffffffffffffffffffffffff1662000b0462000688565b73ffffffffffffffffffffffffffffffffffffffff161462000b685762000b2a62000cc5565b6040517f118cdaa700000000000000000000000000000000000000000000000000000000815260040162000b5f9190620010bc565b60405180910390fd5b565b60008060009054906101000a900473ffffffffffffffffffffffffffffffffffffffff169050816000806101000a81548173ffffffffffffffffffffffffffffffffffffffff021916908373ffffffffffffffffffffffffffffffffffffffff1602179055508173ffffffffffffffffffffffffffffffffffffffff168173ffffffffffffffffffffffffffffffffffffffff167f8be0079c531659141344cd1fd0a4f28419497f9722a3daafe3b4186f6b6457e060405160405180910390a35050565b6000808260405162000c409062000d21565b62000c4c9190620010bc565b604051809103906000f08015801562000c69573d6000803e3d6000fd5b5090508073ffffffffffffffffffffffffffffffffffffffff167f5cbd6538691591ee2fccc3a0b24c6e6418d019848504e30a2e22d5a4062b33898460405162000cb49190620010bc565b60405180910390a280915050919050565b600033905090565b60405180608001604052806000815260200160008152602001600073ffffffffffffffffffffffffffffffffffffffff168152602001600073ffffffffffffffffffffffffffffffffffffffff1681525090565b6105d880620014ca83390190565b6000604051905090565b600080fd5b600080fd5b600080fd5b600080fd5b6000601f19601f8301169050919050565b7f4e487b7100000000000000000000000000000000000000000000000000000000600052604160045260246000fd5b62000d988262000d4d565b810181811067ffffffffffffffff8211171562000dba5762000db962000d5e565b5b80604052505050565b600062000dcf62000d2f565b905062000ddd828262000d8d565b919050565b600067ffffffffffffffff82111562000e005762000dff62000d5e565b5b62000e0b8262000d4d565b9050602081019050919050565b82818337600083830152505050565b600062000e3e62000e388462000de2565b62000dc3565b90508281526020810184848401111562000e5d5762000e5c62000d48565b5b62000e6a84828562000e18565b509392505050565b600082601f83011262000e8a5762000e8962000d43565b5b813562000e9c84826020860162000e27565b91505092915050565b600073ffffffffffffffffffffffffffffffffffffffff82169050919050565b600062000ed28262000ea5565b9050919050565b62000ee48162000ec5565b811462000ef057600080fd5b50565b60008135905062000f048162000ed9565b92915050565b6000806040838503121562000f245762000f2362000d39565b5b600083013567ffffffffffffffff81111562000f455762000f4462000d3e565b5b62000f538582860162000e72565b925050602062000f668582860162000ef3565b9150509250929050565b6000819050919050565b62000f858162000f70565b811462000f9157600080fd5b50565b60008135905062000fa58162000f7a565b92915050565b60008060006060848603121562000fc75762000fc662000d39565b5b600084013567ffffffffffffffff81111562000fe85762000fe762000d3e565b5b62000ff68682870162000e72565b9350506020620010098682870162000f94565b92505060406200101c8682870162000f94565b9150509250925092565b6000806040838503121562001040576200103f62000d39565b5b600083013567ffffffffffffffff81111562001061576200106062000d3e565b5b6200106f8582860162000e72565b925050602083013567ffffffffffffffff81111562001093576200109262000d3e565b5b620010a18582860162000e72565b9150509250929050565b620010b68162000ec5565b82525050565b6000602082019050620010d36000830184620010ab565b92915050565b600060208284031215620010f257620010f162000d39565b5b600082013567ffffffffffffffff81111562001113576200111262000d3e565b5b620011218482850162000e72565b91505092915050565b620011358162000f70565b82525050565b60006080820190506200115260008301876200112a565b6200116160208301866200112a565b620011706040830185620010ab565b6200117f6060830184620010ab565b95945050505050565b600060208284031215620011a157620011a062000d39565b5b6000620011b18482850162000ef3565b91505092915050565b60008060008060808587031215620011d757620011d662000d39565b5b600085013567ffffffffffffffff811115620011f857620011f762000d3e565b5b620012068782880162000e72565b9450506020620012198782880162000f94565b93505060406200122c8782880162000ef3565b92505060606200123f8782880162000f94565b91505092959194509250565b620012568162000f70565b82525050565b620012678162000ec5565b82525050565b6080820160008201516200128560008501826200124b565b5060208201516200129a60208501826200124b565b506040820151620012af60408501826200125c565b506060820151620012c460608501826200125c565b50505050565b6000608082019050620012e160008301846200126d565b92915050565b600081519050919050565b600081905092915050565b60005b838110156200131d57808201518184015260208101905062001300565b60008484015250505050565b60006200133682620012e7565b620013428185620012f2565b935062001354818560208601620012fd565b80840191505092915050565b60006200136e828462001329565b915081905092915050565b600082825260208201905092915050565b60006200139782620012e7565b620013a3818562001379565b9350620013b5818560208601620012fd565b620013c08162000d4d565b840191505092915050565b60006020820190508181036000830152620013e781846200138a565b905092915050565b60008115159050919050565b6200140681620013ef565b81146200141257600080fd5b50565b6000815190506200142681620013fb565b92915050565b60006020828403121562001445576200144462000d39565b5b6000620014558482850162001415565b91505092915050565b6200146981620013ef565b82525050565b60006020820190506200148660008301846200145e565b92915050565b6000606082019050620014a360008301866200112a565b620014b260208301856200112a565b620014c16040830184620010ab565b94935050505056fe608060405234801561001057600080fd5b506040516105d83803806105d8833981810160405281019061003291906101e2565b80600073ffffffffffffffffffffffffffffffffffffffff168173ffffffffffffffffffffffffffffffffffffffff16036100a55760006040517f1e4fbdf700000000000000000000000000000000000000000000000000000000815260040161009c919061021e565b60405180910390fd5b6100b4816100bb60201b60201c565b5050610239565b60008060009054906101000a900473ffffffffffffffffffffffffffffffffffffffff169050816000806101000a81548173ffffffffffffffffffffffffffffffffffffffff021916908373ffffffffffffffffffffffffffffffffffffffff1602179055508173ffffffffffffffffffffffffffffffffffffffff168173ffffffffffffffffffffffffffffffffffffffff167f8be0079c531659141344cd1fd0a4f28419497f9722a3daafe3b4186f6b6457e060405160405180910390a35050565b600080fd5b600073ffffffffffffffffffffffffffffffffffffffff82169050919050565b60006101af82610184565b9050919050565b6101bf816101a4565b81146101ca57600080fd5b50565b6000815190506101dc816101b6565b92915050565b6000602082840312156101f8576101f761017f565b5b6000610206848285016101cd565b91505092915050565b610218816101a4565b82525050565b6000602082019050610233600083018461020f565b92915050565b610390806102486000396000f3fe608060405234801561001057600080fd5b50600436106100415760003560e01c8063715018a6146100465780638da5cb5b14610050578063f2fde38b1461006e575b600080fd5b61004e61008a565b005b61005861009e565b60405161006591906102e1565b60405180910390f35b6100886004803603810190610083919061032d565b6100c7565b005b61009261014d565b61009c60006101d4565b565b60008060009054906101000a900473ffffffffffffffffffffffffffffffffffffffff16905090565b6100cf61014d565b600073ffffffffffffffffffffffffffffffffffffffff168173ffffffffffffffffffffffffffffffffffffffff16036101415760006040517f1e4fbdf700000000000000000000000000000000000000000000000000000000815260040161013891906102e1565b60405180910390fd5b61014a816101d4565b50565b610155610298565b73ffffffffffffffffffffffffffffffffffffffff1661017361009e565b73ffffffffffffffffffffffffffffffffffffffff16146101d257610196610298565b6040517f118cdaa70000000000000000000000000000000000000000000000000000000081526004016101c991906102e1565b60405180910390fd5b565b60008060009054906101000a900473ffffffffffffffffffffffffffffffffffffffff169050816000806101000a81548173ffffffffffffffffffffffffffffffffffffffff021916908373ffffffffffffffffffffffffffffffffffffffff1602179055508173ffffffffffffffffffffffffffffffffffffffff168173ffffffffffffffffffffffffffffffffffffffff167f8be0079c531659141344cd1fd0a4f28419497f9722a3daafe3b4186f6b6457e060405160405180910390a35050565b600033905090565b600073ffffffffffffffffffffffffffffffffffffffff82169050919050565b60006102cb826102a0565b9050919050565b6102db816102c0565b82525050565b60006020820190506102f660008301846102d2565b92915050565b600080fd5b61030a816102c0565b811461031557600080fd5b50565b60008135905061032781610301565b92915050565b600060208284031215610343576103426102fc565b5b600061035184828501610318565b9150509291505056fea264697066735822122035cc68ebaf51219afdaa09d8a534a01b9a3be5f98877d016e45426a2c7ab246c64736f6c63430008180033a26469706673582212203df8cac76271625b6bd7b9daff766fe5defe648f06cf14fcb50493aed2ee825f64736f6c63430008180033",
  "linkReferences": {},
  "deployedLinkReferences": {}
}