{
  "_format": "hh-sol-artifact-1",
  "contractName": "Manufacturer",
  "sourceName": "contracts/Manufacturer.sol",
  "abi": [
    {
      "inputs": [
        {
          "internalType": "address",
          "name": "_verifierContract",
          "type": "address"
        },
        {
          "internalType": "address",
          "name": "owner",
          "type": "address"
        }
      ],
      "stateMutability": "nonpayable",
      "type": "constructor"
    },
    {
      "inputs": [],
      "name": "InvalidProductionDate",
      "type": "error"
    },
    {
      "inputs": [],
      "name": "InvalidVIN",
      "type": "error"
    },
    {
      "inputs": [],
      "name": "NotApprovedToChangeOwnership",
      "type": "error"
    },
    {
      "inputs": [
        {
          "internalType": "address",
          "name": "owner",
          "type": "address"
        }
      ],
      "name": "OwnableInvalidOwner",
      "type": "error"
    },
    {
      "inputs": [
        {
          "internalType": "address",
          "name": "account",
          "type": "address"
        }
      ],
      "name": "OwnableUnauthorizedAccount",
      "type": "error"
    },
    {
      "anonymous": false,
      "inputs": [
        {
          "indexed": false,
          "internalType": "string",
          "name": "vin",
          "type": "string"
        }
      ],
      "name": "CarInfoChanged",
      "type": "event"
    },
    {
      "anonymous": false,
      "inputs": [
        {
          "indexed": true,
          "internalType": "string",
          "name": "vin",
          "type": "string"
        },
        {
          "indexed": false,
          "internalType": "bool",
          "name": "isValid",
          "type": "bool"
        }
      ],
      "name": "DataVerified",
      "type": "event"
    },
    {
      "anonymous": false,
      "inputs": [
        {
          "indexed": true,
          "internalType": "address",
          "name": "newOwner",
          "type": "address"
        }
      ],
      "name": "NewOwner",
      "type": "event"
    },
    {
      "anonymous": false,
      "inputs": [
        {
          "indexed": true,
          "internalType": "address",
          "name": "wallet",
          "type": "address"
        },
        {
          "indexed": false,
          "internalType": "address",
          "name": "owner",
          "type": "address"
        }
      ],
      "name": "NewWalletCreated",
      "type": "event"
    },
    {
      "anonymous": false,
      "inputs": [
        {
          "indexed": true,
          "internalType": "address",
          "name": "previousOwner",
          "type": "address"
        },
        {
          "indexed": true,
          "internalType": "address",
          "name": "newOwner",
          "type": "address"
        }
      ],
      "name": "OwnershipTransferred",
      "type": "event"
    },
    {
      "anonymous": false,
      "inputs": [
        {
          "indexed": true,
          "internalType": "string",
          "name": "vin",
          "type": "string"
        },
        {
          "indexed": false,
          "internalType": "uint256",
          "name": "productionDate",
          "type": "uint256"
        },
        {
          "indexed": false,
          "internalType": "uint256",
          "name": "initialMileage",
          "type": "uint256"
        },
        {
          "indexed": false,
          "internalType": "address",
          "name": "wallet",
          "type": "address"
        }
      ],
      "name": "VehicleProduced",
      "type": "event"
    },
    {
      "inputs": [
        {
          "internalType": "string",
          "name": "vin",
          "type": "string"
        },
        {
          "internalType": "address",
          "name": "newOwner",
          "type": "address"
        }
      ],
      "name": "approveOwnership",
      "outputs": [],
      "stateMutability": "nonpayable",
      "type": "function"
    },
    {
      "inputs": [
        {
          "internalType": "string",
          "name": "vin",
          "type": "string"
        },
        {
          "internalType": "uint256",
          "name": "productionDate",
          "type": "uint256"
        },
        {
          "internalType": "uint256",
          "name": "initialMileage",
          "type": "uint256"
        }
      ],
      "name": "changeCarInfo",
      "outputs": [],
      "stateMutability": "nonpayable",
      "type": "function"
    },
    {
      "inputs": [
        {
          "internalType": "string",
          "name": "vin",
          "type": "string"
        }
      ],
      "name": "getVehicleData",
      "outputs": [
        {
          "components": [
            {
              "internalType": "uint256",
              "name": "productionDate",
              "type": "uint256"
            },
            {
              "internalType": "uint256",
              "name": "initialMileage",
              "type": "uint256"
            },
            {
              "internalType": "address",
              "name": "owner",
              "type": "address"
            },
            {
              "internalType": "address",
              "name": "wallet",
              "type": "address"
            }
          ],
          "internalType": "struct Manufacturer.Vehicle",
          "name": "",
          "type": "tuple"
        }
      ],
      "stateMutability": "view",
      "type": "function"
    },
    {
      "inputs": [],
      "name": "owner",
      "outputs": [
        {
          "internalType": "address",
          "name": "",
          "type": "address"
        }
      ],
      "stateMutability": "view",
      "type": "function"
    },
    {
      "inputs": [
        {
          "internalType": "string",
          "name": "vin",
          "type": "string"
        },
        {
          "internalType": "uint256",
          "name": "productionDate",
          "type": "uint256"
        },
        {
          "internalType": "address",
          "name": "owner",
          "type": "address"
        },
        {
          "internalType": "uint256",
          "name": "initialMileage",
          "type": "uint256"
        }
      ],
      "name": "produceVehicle",
      "outputs": [],
      "stateMutability": "nonpayable",
      "type": "function"
    },
    {
      "inputs": [],
      "name": "renounceOwnership",
      "outputs": [],
      "stateMutability": "nonpayable",
      "type": "function"
    },
    {
      "inputs": [
        {
          "internalType": "address",
          "name": "newOwner",
          "type": "address"
        }
      ],
      "name": "transferOwnership",
      "outputs": [],
      "stateMutability": "nonpayable",
      "type": "function"
    },
    {
      "inputs": [
        {
          "internalType": "string",
          "name": "",
          "type": "string"
        }
      ],
      "name": "vehicles",
      "outputs": [
        {
          "internalType": "uint256",
          "name": "productionDate",
          "type": "uint256"
        },
        {
          "internalType": "uint256",
          "name": "initialMileage",
          "type": "uint256"
        },
        {
          "internalType": "address",
          "name": "owner",
          "type": "address"
        },
        {
          "internalType": "address",
          "name": "wallet",
          "type": "address"
        }
      ],
      "stateMutability": "view",
      "type": "function"
    },
    {
      "inputs": [],
      "name": "verifierContract",
      "outputs": [
        {
          "internalType": "address",
          "name": "",
          "type": "address"
        }
      ],
      "stateMutability": "view",
      "type": "function"
    },
    {
      "inputs": [
        {
          "internalType": "string",
          "name": "vin",
          "type": "string"
        },
        {
          "internalType": "address",
          "name": "owner",
          "type": "address"
        }
      ],
      "name": "verifyData",
      "outputs": [],
      "stateMutability": "nonpayable",
      "type": "function"
    }
  ],
  "bytecode": "0x60806040523480156200001157600080fd5b50604051620027a5380380620027a5833981810160405281019062000037919062000236565b80600073ffffffffffffffffffffffffffffffffffffffff168173ffffffffffffffffffffffffffffffffffffffff1603620000ad5760006040517f1e4fbdf7000000000000000000000000000000000000000000000000000000008152600401620000a491906200028e565b60405180910390fd5b620000be816200010860201b60201c565b5081600160006101000a81548173ffffffffffffffffffffffffffffffffffffffff021916908373ffffffffffffffffffffffffffffffffffffffff1602179055505050620002ab565b60008060009054906101000a900473ffffffffffffffffffffffffffffffffffffffff169050816000806101000a81548173ffffffffffffffffffffffffffffffffffffffff021916908373ffffffffffffffffffffffffffffffffffffffff1602179055508173ffffffffffffffffffffffffffffffffffffffff168173ffffffffffffffffffffffffffffffffffffffff167f8be0079c531659141344cd1fd0a4f28419497f9722a3daafe3b4186f6b6457e060405160405180910390a35050565b600080fd5b600073ffffffffffffffffffffffffffffffffffffffff82169050919050565b6000620001fe82620001d1565b9050919050565b6200021081620001f1565b81146200021c57600080fd5b50565b600081519050620002308162000205565b92915050565b6000806040838503121562000250576200024f620001cc565b5b600062000260858286016200021f565b925050602062000273858286016200021f565b9150509250929050565b6200028881620001f1565b82525050565b6000602082019050620002a560008301846200027d565b92915050565b6124ea80620002bb6000396000f3fe60806040523480156200001157600080fd5b5060043610620000ac5760003560e01c8063976de5c5116200006f578063976de5c5146200013f578063cf6956881462000178578063f2fde38b146200019a578063fc9d753a14620001ba578063fce2ba7b14620001da57620000ac565b80630d94fb5f14620000b15780631d716d5f14620000d1578063715018a614620000f15780637dc7560814620000fd5780638da5cb5b146200011d575b600080fd5b620000cf6004803603810190620000c9919062001192565b62000210565b005b620000ef6004803603810190620000e9919062001233565b62000517565b005b620000fb620006de565b005b6200011b600480360381019062000115919062001192565b620006f6565b005b62000127620007f3565b604051620001369190620012bf565b60405180910390f35b6200015d6004803603810190620001579190620012dc565b6200081c565b6040516200016f94939291906200133e565b60405180910390f35b62000182620008a2565b604051620001919190620012bf565b60405180910390f35b620001b86004803603810190620001b291906200138b565b620008c8565b005b620001d86004803603810190620001d29190620013bd565b62000955565b005b620001f86004803603810190620001f29190620012dc565b62000c64565b604051620002079190620014cd565b60405180910390f35b60006200021d8362000c64565b905060118351146200025b576040517f56c74b3c00000000000000000000000000000000000000000000000000000000815260040160405180910390fd5b3373ffffffffffffffffffffffffffffffffffffffff16816040015173ffffffffffffffffffffffffffffffffffffffff1614158015620002cc57503373ffffffffffffffffffffffffffffffffffffffff16816060015173ffffffffffffffffffffffffffffffffffffffff1614155b1562000304576040517f6bc987fd00000000000000000000000000000000000000000000000000000000815260040160405180910390fd5b600160009054906101000a900473ffffffffffffffffffffffffffffffffffffffff1673ffffffffffffffffffffffffffffffffffffffff1663b75dacc88460028660405162000355919062001563565b908152602001604051809103902060020160009054906101000a900473ffffffffffffffffffffffffffffffffffffffff166040518363ffffffff1660e01b8152600401620003a6929190620015ce565b600060405180830381600087803b158015620003c157600080fd5b505af1158015620003d6573d6000803e3d6000fd5b5050505081600284604051620003ed919062001563565b908152602001604051809103902060020160006101000a81548173ffffffffffffffffffffffffffffffffffffffff021916908373ffffffffffffffffffffffffffffffffffffffff160217905550600160009054906101000a900473ffffffffffffffffffffffffffffffffffffffff1673ffffffffffffffffffffffffffffffffffffffff16633e0a0fa384846040518363ffffffff1660e01b81526004016200049b929190620015ce565b600060405180830381600087803b158015620004b657600080fd5b505af1158015620004cb573d6000803e3d6000fd5b505050508173ffffffffffffffffffffffffffffffffffffffff167f3edd90e7770f06fafde38004653b33870066c33bfc923ff6102acd601f85dfbc60405160405180910390a2505050565b601183511462000553576040517f56c74b3c00000000000000000000000000000000000000000000000000000000815260040160405180910390fd5b428211156200058e576040517f255ee82700000000000000000000000000000000000000000000000000000000815260040160405180910390fd5b60405180608001604052808381526020018281526020013373ffffffffffffffffffffffffffffffffffffffff1681526020013373ffffffffffffffffffffffffffffffffffffffff16815250600284604051620005ed919062001563565b9081526020016040518091039020600082015181600001556020820151816001015560408201518160020160006101000a81548173ffffffffffffffffffffffffffffffffffffffff021916908373ffffffffffffffffffffffffffffffffffffffff16021790555060608201518160030160006101000a81548173ffffffffffffffffffffffffffffffffffffffff021916908373ffffffffffffffffffffffffffffffffffffffff1602179055509050507fd02ad6efe924eb3fedae52dcbf8ba528c69451f3e2d3ec7067b6960dd3ff48e283604051620006d1919062001602565b60405180910390a1505050565b620006e862000d60565b620006f4600062000df0565b565b6000600160009054906101000a900473ffffffffffffffffffffffffffffffffffffffff1673ffffffffffffffffffffffffffffffffffffffff16637dc7560884846040518363ffffffff1660e01b815260040162000757929190620015ce565b602060405180830381865afa15801562000775573d6000803e3d6000fd5b505050506040513d601f19601f820116820180604052508101906200079b919062001663565b905082604051620007ad919062001563565b60405180910390207f09e9b5d6d67275a5e11e606ba9ec755579a1814af62c7fe6d3bf4df19d52fa2282604051620007e69190620016a6565b60405180910390a2505050565b60008060009054906101000a900473ffffffffffffffffffffffffffffffffffffffff16905090565b6002818051602081018201805184825260208301602085012081835280955050505050506000915090508060000154908060010154908060020160009054906101000a900473ffffffffffffffffffffffffffffffffffffffff16908060030160009054906101000a900473ffffffffffffffffffffffffffffffffffffffff16905084565b600160009054906101000a900473ffffffffffffffffffffffffffffffffffffffff1681565b620008d262000d60565b600073ffffffffffffffffffffffffffffffffffffffff168173ffffffffffffffffffffffffffffffffffffffff1603620009475760006040517f1e4fbdf70000000000000000000000000000000000000000000000000000000081526004016200093e9190620012bf565b60405180910390fd5b620009528162000df0565b50565b6200095f62000d60565b60118451141580620009e15750600073ffffffffffffffffffffffffffffffffffffffff1660028560405162000996919062001563565b908152602001604051809103902060020160009054906101000a900473ffffffffffffffffffffffffffffffffffffffff1673ffffffffffffffffffffffffffffffffffffffff1614155b1562000a19576040517f56c74b3c00000000000000000000000000000000000000000000000000000000815260040160405180910390fd5b4283111562000a54576040517f255ee82700000000000000000000000000000000000000000000000000000000815260040160405180910390fd5b600062000a613362000eb4565b905060405180608001604052808581526020018381526020018473ffffffffffffffffffffffffffffffffffffffff1681526020018273ffffffffffffffffffffffffffffffffffffffff1681525060028660405162000ac2919062001563565b9081526020016040518091039020600082015181600001556020820151816001015560408201518160020160006101000a81548173ffffffffffffffffffffffffffffffffffffffff021916908373ffffffffffffffffffffffffffffffffffffffff16021790555060608201518160030160006101000a81548173ffffffffffffffffffffffffffffffffffffffff021916908373ffffffffffffffffffffffffffffffffffffffff160217905550905050600160009054906101000a900473ffffffffffffffffffffffffffffffffffffffff1673ffffffffffffffffffffffffffffffffffffffff16633e0a0fa386856040518363ffffffff1660e01b815260040162000bd4929190620015ce565b600060405180830381600087803b15801562000bef57600080fd5b505af115801562000c04573d6000803e3d6000fd5b505050508460405162000c18919062001563565b60405180910390207f8d92a6b0d7a25576a1a8f61ba8f282f9735bb4ec5237c707207b1445d105995485848460405162000c5593929190620016c3565b60405180910390a25050505050565b62000c6e62000f55565b60028260405162000c80919062001563565b908152602001604051809103902060405180608001604052908160008201548152602001600182015481526020016002820160009054906101000a900473ffffffffffffffffffffffffffffffffffffffff1673ffffffffffffffffffffffffffffffffffffffff1673ffffffffffffffffffffffffffffffffffffffff1681526020016003820160009054906101000a900473ffffffffffffffffffffffffffffffffffffffff1673ffffffffffffffffffffffffffffffffffffffff1673ffffffffffffffffffffffffffffffffffffffff16815250509050919050565b62000d6a62000f4d565b73ffffffffffffffffffffffffffffffffffffffff1662000d8a620007f3565b73ffffffffffffffffffffffffffffffffffffffff161462000dee5762000db062000f4d565b6040517f118cdaa700000000000000000000000000000000000000000000000000000000815260040162000de59190620012bf565b60405180910390fd5b565b60008060009054906101000a900473ffffffffffffffffffffffffffffffffffffffff169050816000806101000a81548173ffffffffffffffffffffffffffffffffffffffff021916908373ffffffffffffffffffffffffffffffffffffffff1602179055508173ffffffffffffffffffffffffffffffffffffffff168173ffffffffffffffffffffffffffffffffffffffff167f8be0079c531659141344cd1fd0a4f28419497f9722a3daafe3b4186f6b6457e060405160405180910390a35050565b600080823060405162000ec79062000fa9565b62000ed492919062001700565b604051809103906000f08015801562000ef1573d6000803e3d6000fd5b5090508073ffffffffffffffffffffffffffffffffffffffff167f5cbd6538691591ee2fccc3a0b24c6e6418d019848504e30a2e22d5a4062b33898460405162000f3c9190620012bf565b60405180910390a280915050919050565b600033905090565b60405180608001604052806000815260200160008152602001600073ffffffffffffffffffffffffffffffffffffffff168152602001600073ffffffffffffffffffffffffffffffffffffffff1681525090565b610d87806200172e83390190565b6000604051905090565b600080fd5b600080fd5b600080fd5b600080fd5b6000601f19601f8301169050919050565b7f4e487b7100000000000000000000000000000000000000000000000000000000600052604160045260246000fd5b620010208262000fd5565b810181811067ffffffffffffffff8211171562001042576200104162000fe6565b5b80604052505050565b60006200105762000fb7565b905062001065828262001015565b919050565b600067ffffffffffffffff82111562001088576200108762000fe6565b5b620010938262000fd5565b9050602081019050919050565b82818337600083830152505050565b6000620010c6620010c0846200106a565b6200104b565b905082815260208101848484011115620010e557620010e462000fd0565b5b620010f2848285620010a0565b509392505050565b600082601f83011262001112576200111162000fcb565b5b813562001124848260208601620010af565b91505092915050565b600073ffffffffffffffffffffffffffffffffffffffff82169050919050565b60006200115a826200112d565b9050919050565b6200116c816200114d565b81146200117857600080fd5b50565b6000813590506200118c8162001161565b92915050565b60008060408385031215620011ac57620011ab62000fc1565b5b600083013567ffffffffffffffff811115620011cd57620011cc62000fc6565b5b620011db85828601620010fa565b9250506020620011ee858286016200117b565b9150509250929050565b6000819050919050565b6200120d81620011f8565b81146200121957600080fd5b50565b6000813590506200122d8162001202565b92915050565b6000806000606084860312156200124f576200124e62000fc1565b5b600084013567ffffffffffffffff81111562001270576200126f62000fc6565b5b6200127e86828701620010fa565b935050602062001291868287016200121c565b9250506040620012a4868287016200121c565b9150509250925092565b620012b9816200114d565b82525050565b6000602082019050620012d66000830184620012ae565b92915050565b600060208284031215620012f557620012f462000fc1565b5b600082013567ffffffffffffffff81111562001316576200131562000fc6565b5b6200132484828501620010fa565b91505092915050565b6200133881620011f8565b82525050565b60006080820190506200135560008301876200132d565b6200136460208301866200132d565b620013736040830185620012ae565b620013826060830184620012ae565b95945050505050565b600060208284031215620013a457620013a362000fc1565b5b6000620013b4848285016200117b565b91505092915050565b60008060008060808587031215620013da57620013d962000fc1565b5b600085013567ffffffffffffffff811115620013fb57620013fa62000fc6565b5b6200140987828801620010fa565b94505060206200141c878288016200121c565b93505060406200142f878288016200117b565b925050606062001442878288016200121c565b91505092959194509250565b6200145981620011f8565b82525050565b6200146a816200114d565b82525050565b6080820160008201516200148860008501826200144e565b5060208201516200149d60208501826200144e565b506040820151620014b260408501826200145f565b506060820151620014c760608501826200145f565b50505050565b6000608082019050620014e4600083018462001470565b92915050565b600081519050919050565b600081905092915050565b60005b838110156200152057808201518184015260208101905062001503565b60008484015250505050565b60006200153982620014ea565b620015458185620014f5565b93506200155781856020860162001500565b80840191505092915050565b60006200157182846200152c565b915081905092915050565b600082825260208201905092915050565b60006200159a82620014ea565b620015a681856200157c565b9350620015b881856020860162001500565b620015c38162000fd5565b840191505092915050565b60006040820190508181036000830152620015ea81856200158d565b9050620015fb6020830184620012ae565b9392505050565b600060208201905081810360008301526200161e81846200158d565b905092915050565b60008115159050919050565b6200163d8162001626565b81146200164957600080fd5b50565b6000815190506200165d8162001632565b92915050565b6000602082840312156200167c576200167b62000fc1565b5b60006200168c848285016200164c565b91505092915050565b620016a08162001626565b82525050565b6000602082019050620016bd600083018462001695565b92915050565b6000606082019050620016da60008301866200132d565b620016e960208301856200132d565b620016f86040830184620012ae565b949350505050565b6000604082019050620017176000830185620012ae565b620017266020830184620012ae565b939250505056fe60806040523480156200001157600080fd5b5060405162000d8738038062000d87833981810160405281019062000037919062000236565b81600073ffffffffffffffffffffffffffffffffffffffff168173ffffffffffffffffffffffffffffffffffffffff1603620000ad5760006040517f1e4fbdf7000000000000000000000000000000000000000000000000000000008152600401620000a491906200028e565b60405180910390fd5b620000be816200010860201b60201c565b5080600160006101000a81548173ffffffffffffffffffffffffffffffffffffffff021916908373ffffffffffffffffffffffffffffffffffffffff1602179055505050620002ab565b60008060009054906101000a900473ffffffffffffffffffffffffffffffffffffffff169050816000806101000a81548173ffffffffffffffffffffffffffffffffffffffff021916908373ffffffffffffffffffffffffffffffffffffffff1602179055508173ffffffffffffffffffffffffffffffffffffffff168173ffffffffffffffffffffffffffffffffffffffff167f8be0079c531659141344cd1fd0a4f28419497f9722a3daafe3b4186f6b6457e060405160405180910390a35050565b600080fd5b600073ffffffffffffffffffffffffffffffffffffffff82169050919050565b6000620001fe82620001d1565b9050919050565b6200021081620001f1565b81146200021c57600080fd5b50565b600081519050620002308162000205565b92915050565b6000806040838503121562000250576200024f620001cc565b5b600062000260858286016200021f565b925050602062000273858286016200021f565b9150509250929050565b6200028881620001f1565b82525050565b6000602082019050620002a560008301846200027d565b92915050565b610acc80620002bb6000396000f3fe608060405234801561001057600080fd5b50600436106100575760003560e01c8063715018a61461005c57806374754282146100665780638da5cb5b146100845780638e11f443146100a2578063f2fde38b146100be575b600080fd5b6100646100da565b005b61006e6100ee565b60405161007b91906105ca565b60405180910390f35b61008c610114565b6040516100999190610606565b60405180910390f35b6100bc60048036038101906100b791906107b1565b61013d565b005b6100d860048036038101906100d39190610839565b610372565b005b6100e26103f8565b6100ec600061047f565b565b600160009054906101000a900473ffffffffffffffffffffffffffffffffffffffff1681565b60008060009054906101000a900473ffffffffffffffffffffffffffffffffffffffff16905090565b6101456103f8565b6000600160009054906101000a900473ffffffffffffffffffffffffffffffffffffffff1673ffffffffffffffffffffffffffffffffffffffff1663fce2ba7b846040518263ffffffff1660e01b81526004016101a291906108e5565b608060405180830381865afa1580156101bf573d6000803e3d6000fd5b505050506040513d601f19601f820116820180604052508101906101e391906109ae565b90503373ffffffffffffffffffffffffffffffffffffffff16816060015173ffffffffffffffffffffffffffffffffffffffff161461024e576040517f23455ba100000000000000000000000000000000000000000000000000000000815260040160405180910390fd5b8181602001511061028b576040517ff8e9999200000000000000000000000000000000000000000000000000000000815260040160405180910390fd5b600160009054906101000a900473ffffffffffffffffffffffffffffffffffffffff1673ffffffffffffffffffffffffffffffffffffffff16631d716d5f848360000151856040518463ffffffff1660e01b81526004016102ee939291906109ea565b600060405180830381600087803b15801561030857600080fd5b505af115801561031c573d6000803e3d6000fd5b505050508260405161032e9190610a64565b60405180910390207f97a8f6022b0fd6bd89e38a8d4e3526b2d10a14b2a04eabdd6209a14059fa2fb9836040516103659190610a7b565b60405180910390a2505050565b61037a6103f8565b600073ffffffffffffffffffffffffffffffffffffffff168173ffffffffffffffffffffffffffffffffffffffff16036103ec5760006040517f1e4fbdf70000000000000000000000000000000000000000000000000000000081526004016103e39190610606565b60405180910390fd5b6103f58161047f565b50565b610400610543565b73ffffffffffffffffffffffffffffffffffffffff1661041e610114565b73ffffffffffffffffffffffffffffffffffffffff161461047d57610441610543565b6040517f118cdaa70000000000000000000000000000000000000000000000000000000081526004016104749190610606565b60405180910390fd5b565b60008060009054906101000a900473ffffffffffffffffffffffffffffffffffffffff169050816000806101000a81548173ffffffffffffffffffffffffffffffffffffffff021916908373ffffffffffffffffffffffffffffffffffffffff1602179055508173ffffffffffffffffffffffffffffffffffffffff168173ffffffffffffffffffffffffffffffffffffffff167f8be0079c531659141344cd1fd0a4f28419497f9722a3daafe3b4186f6b6457e060405160405180910390a35050565b600033905090565b600073ffffffffffffffffffffffffffffffffffffffff82169050919050565b6000819050919050565b600061059061058b6105868461054b565b61056b565b61054b565b9050919050565b60006105a282610575565b9050919050565b60006105b482610597565b9050919050565b6105c4816105a9565b82525050565b60006020820190506105df60008301846105bb565b92915050565b60006105f08261054b565b9050919050565b610600816105e5565b82525050565b600060208201905061061b60008301846105f7565b92915050565b6000604051905090565b600080fd5b600080fd5b600080fd5b600080fd5b6000601f19601f8301169050919050565b7f4e487b7100000000000000000000000000000000000000000000000000000000600052604160045260246000fd5b6106888261063f565b810181811067ffffffffffffffff821117156106a7576106a6610650565b5b80604052505050565b60006106ba610621565b90506106c6828261067f565b919050565b600067ffffffffffffffff8211156106e6576106e5610650565b5b6106ef8261063f565b9050602081019050919050565b82818337600083830152505050565b600061071e610719846106cb565b6106b0565b90508281526020810184848401111561073a5761073961063a565b5b6107458482856106fc565b509392505050565b600082601f83011261076257610761610635565b5b813561077284826020860161070b565b91505092915050565b6000819050919050565b61078e8161077b565b811461079957600080fd5b50565b6000813590506107ab81610785565b92915050565b600080604083850312156107c8576107c761062b565b5b600083013567ffffffffffffffff8111156107e6576107e5610630565b5b6107f28582860161074d565b92505060206108038582860161079c565b9150509250929050565b610816816105e5565b811461082157600080fd5b50565b6000813590506108338161080d565b92915050565b60006020828403121561084f5761084e61062b565b5b600061085d84828501610824565b91505092915050565b600081519050919050565b600082825260208201905092915050565b60005b838110156108a0578082015181840152602081019050610885565b60008484015250505050565b60006108b782610866565b6108c18185610871565b93506108d1818560208601610882565b6108da8161063f565b840191505092915050565b600060208201905081810360008301526108ff81846108ac565b905092915050565b600080fd5b60008151905061091b81610785565b92915050565b6000815190506109308161080d565b92915050565b60006080828403121561094c5761094b610907565b5b61095660806106b0565b905060006109668482850161090c565b600083015250602061097a8482850161090c565b602083015250604061098e84828501610921565b60408301525060606109a284828501610921565b60608301525092915050565b6000608082840312156109c4576109c361062b565b5b60006109d284828501610936565b91505092915050565b6109e48161077b565b82525050565b60006060820190508181036000830152610a0481866108ac565b9050610a1360208301856109db565b610a2060408301846109db565b949350505050565b600081905092915050565b6000610a3e82610866565b610a488185610a28565b9350610a58818560208601610882565b80840191505092915050565b6000610a708284610a33565b915081905092915050565b6000602082019050610a9060008301846109db565b9291505056fea26469706673582212205707d1b2259fd2563a109a8d0bd410896c18d80c605453f91b891f744e9709c764736f6c63430008180033a264697066735822122094e2c2e740afbc32f9fe6cc97f480ffd564e198f159f28bde231c72903014eeb64736f6c63430008180033",
  "linkReferences": {},
  "deployedLinkReferences": {}
}