{
  "_format": "hh-sol-artifact-1",
  "contractName": "Manufacturer",
  "sourceName": "contracts/Manufacturer.sol",
  "abi": [
    {
      "inputs": [
        {
          "internalType": "address",
          "name": "_verifierContract",
          "type": "address"
        },
        {
          "internalType": "address",
          "name": "owner",
          "type": "address"
        }
      ],
      "stateMutability": "nonpayable",
      "type": "constructor"
    },
    {
      "inputs": [],
      "name": "InvalidProductionDate",
      "type": "error"
    },
    {
      "inputs": [],
      "name": "InvalidVIN",
      "type": "error"
    },
    {
      "inputs": [],
      "name": "NotApprovedToChangeOwnership",
      "type": "error"
    },
    {
      "inputs": [
        {
          "internalType": "address",
          "name": "owner",
          "type": "address"
        }
      ],
      "name": "OwnableInvalidOwner",
      "type": "error"
    },
    {
      "inputs": [
        {
          "internalType": "address",
          "name": "account",
          "type": "address"
        }
      ],
      "name": "OwnableUnauthorizedAccount",
      "type": "error"
    },
    {
      "anonymous": false,
      "inputs": [
        {
          "indexed": false,
          "internalType": "string",
          "name": "vin",
          "type": "string"
        }
      ],
      "name": "CarInfoChanged",
      "type": "event"
    },
    {
      "anonymous": false,
      "inputs": [
        {
          "indexed": true,
          "internalType": "string",
          "name": "vin",
          "type": "string"
        },
        {
          "indexed": false,
          "internalType": "bool",
          "name": "isValid",
          "type": "bool"
        }
      ],
      "name": "DataVerified",
      "type": "event"
    },
    {
      "anonymous": false,
      "inputs": [
        {
          "indexed": true,
          "internalType": "address",
          "name": "newOwner",
          "type": "address"
        }
      ],
      "name": "NewOwner",
      "type": "event"
    },
    {
      "anonymous": false,
      "inputs": [
        {
          "indexed": true,
          "internalType": "address",
          "name": "wallet",
          "type": "address"
        },
        {
          "indexed": false,
          "internalType": "address",
          "name": "owner",
          "type": "address"
        }
      ],
      "name": "NewWalletCreated",
      "type": "event"
    },
    {
      "anonymous": false,
      "inputs": [
        {
          "indexed": true,
          "internalType": "address",
          "name": "previousOwner",
          "type": "address"
        },
        {
          "indexed": true,
          "internalType": "address",
          "name": "newOwner",
          "type": "address"
        }
      ],
      "name": "OwnershipTransferred",
      "type": "event"
    },
    {
      "anonymous": false,
      "inputs": [
        {
          "indexed": true,
          "internalType": "string",
          "name": "vin",
          "type": "string"
        },
        {
          "indexed": false,
          "internalType": "uint256",
          "name": "productionDate",
          "type": "uint256"
        },
        {
          "indexed": false,
          "internalType": "uint256",
          "name": "initialMileage",
          "type": "uint256"
        },
        {
          "indexed": false,
          "internalType": "address",
          "name": "wallet",
          "type": "address"
        }
      ],
      "name": "VehicleProduced",
      "type": "event"
    },
    {
      "inputs": [
        {
          "internalType": "string",
          "name": "vin",
          "type": "string"
        },
        {
          "internalType": "address",
          "name": "newOwner",
          "type": "address"
        }
      ],
      "name": "approveOwnership",
      "outputs": [],
      "stateMutability": "nonpayable",
      "type": "function"
    },
    {
      "inputs": [
        {
          "internalType": "string",
          "name": "vin",
          "type": "string"
        },
        {
          "internalType": "uint256",
          "name": "productionDate",
          "type": "uint256"
        },
        {
          "internalType": "uint256",
          "name": "initialMileage",
          "type": "uint256"
        }
      ],
      "name": "changeCarInfo",
      "outputs": [],
      "stateMutability": "nonpayable",
      "type": "function"
    },
    {
      "inputs": [
        {
          "internalType": "string",
          "name": "vin",
          "type": "string"
        }
      ],
      "name": "getVehicleData",
      "outputs": [
        {
          "components": [
            {
              "internalType": "uint256",
              "name": "productionDate",
              "type": "uint256"
            },
            {
              "internalType": "uint256",
              "name": "initialMileage",
              "type": "uint256"
            },
            {
              "internalType": "address",
              "name": "owner",
              "type": "address"
            },
            {
              "internalType": "address",
              "name": "wallet",
              "type": "address"
            }
          ],
          "internalType": "struct Manufacturer.Vehicle",
          "name": "",
          "type": "tuple"
        }
      ],
      "stateMutability": "view",
      "type": "function"
    },
    {
      "inputs": [],
      "name": "owner",
      "outputs": [
        {
          "internalType": "address",
          "name": "",
          "type": "address"
        }
      ],
      "stateMutability": "view",
      "type": "function"
    },
    {
      "inputs": [
        {
          "internalType": "string",
          "name": "vin",
          "type": "string"
        },
        {
          "internalType": "uint256",
          "name": "productionDate",
          "type": "uint256"
        },
        {
          "internalType": "address",
          "name": "owner",
          "type": "address"
        },
        {
          "internalType": "uint256",
          "name": "initialMileage",
          "type": "uint256"
        }
      ],
      "name": "produceVehicle",
      "outputs": [],
      "stateMutability": "nonpayable",
      "type": "function"
    },
    {
      "inputs": [],
      "name": "renounceOwnership",
      "outputs": [],
      "stateMutability": "nonpayable",
      "type": "function"
    },
    {
      "inputs": [
        {
          "internalType": "address",
          "name": "newOwner",
          "type": "address"
        }
      ],
      "name": "transferOwnership",
      "outputs": [],
      "stateMutability": "nonpayable",
      "type": "function"
    },
    {
      "inputs": [
        {
          "internalType": "string",
          "name": "",
          "type": "string"
        }
      ],
      "name": "vehicles",
      "outputs": [
        {
          "internalType": "uint256",
          "name": "productionDate",
          "type": "uint256"
        },
        {
          "internalType": "uint256",
          "name": "initialMileage",
          "type": "uint256"
        },
        {
          "internalType": "address",
          "name": "owner",
          "type": "address"
        },
        {
          "internalType": "address",
          "name": "wallet",
          "type": "address"
        }
      ],
      "stateMutability": "view",
      "type": "function"
    },
    {
      "inputs": [],
      "name": "verifierContract",
      "outputs": [
        {
          "internalType": "address",
          "name": "",
          "type": "address"
        }
      ],
      "stateMutability": "view",
      "type": "function"
    },
    {
      "inputs": [
        {
          "internalType": "string",
          "name": "vin",
          "type": "string"
        },
        {
          "internalType": "string",
          "name": "data",
          "type": "string"
        }
      ],
      "name": "verifyData",
      "outputs": [],
      "stateMutability": "nonpayable",
      "type": "function"
    }
  ],
  "bytecode": "0x60806040523480156200001157600080fd5b5060405162001e1a38038062001e1a833981810160405281019062000037919062000236565b80600073ffffffffffffffffffffffffffffffffffffffff168173ffffffffffffffffffffffffffffffffffffffff1603620000ad5760006040517f1e4fbdf7000000000000000000000000000000000000000000000000000000008152600401620000a491906200028e565b60405180910390fd5b620000be816200010860201b60201c565b5081600160006101000a81548173ffffffffffffffffffffffffffffffffffffffff021916908373ffffffffffffffffffffffffffffffffffffffff1602179055505050620002ab565b60008060009054906101000a900473ffffffffffffffffffffffffffffffffffffffff169050816000806101000a81548173ffffffffffffffffffffffffffffffffffffffff021916908373ffffffffffffffffffffffffffffffffffffffff1602179055508173ffffffffffffffffffffffffffffffffffffffff168173ffffffffffffffffffffffffffffffffffffffff167f8be0079c531659141344cd1fd0a4f28419497f9722a3daafe3b4186f6b6457e060405160405180910390a35050565b600080fd5b600073ffffffffffffffffffffffffffffffffffffffff82169050919050565b6000620001fe82620001d1565b9050919050565b6200021081620001f1565b81146200021c57600080fd5b50565b600081519050620002308162000205565b92915050565b6000806040838503121562000250576200024f620001cc565b5b600062000260858286016200021f565b925050602062000273858286016200021f565b9150509250929050565b6200028881620001f1565b82525050565b6000602082019050620002a560008301846200027d565b92915050565b611b5f80620002bb6000396000f3fe60806040523480156200001157600080fd5b5060043610620000ac5760003560e01c8063976de5c5116200006f578063976de5c5146200013f578063cf6956881462000178578063f2fde38b146200019a578063fc9d753a14620001ba578063fce2ba7b14620001da57620000ac565b80630d94fb5f14620000b15780631d716d5f14620000d1578063715018a614620000f15780638020ccb614620000fd5780638da5cb5b146200011d575b600080fd5b620000cf6004803603810190620000c9919062000f92565b62000210565b005b620000ef6004803603810190620000e9919062001033565b620003ae565b005b620000fb62000575565b005b6200011b6004803603810190620001159190620010ae565b6200058d565b005b6200012762000688565b60405162000136919062001144565b60405180910390f35b6200015d600480360381019062000157919062001161565b620006b1565b6040516200016f9493929190620011c3565b60405180910390f35b6200018262000737565b60405162000191919062001144565b60405180910390f35b620001b86004803603810190620001b2919062001210565b6200075d565b005b620001d86004803603810190620001d2919062001242565b620007ea565b005b620001f86004803603810190620001f2919062001161565b62000a66565b60405162000207919062001352565b60405180910390f35b60006200021d8362000a66565b905060118351146200025b576040517f56c74b3c00000000000000000000000000000000000000000000000000000000815260040160405180910390fd5b3373ffffffffffffffffffffffffffffffffffffffff16816040015173ffffffffffffffffffffffffffffffffffffffff1614158015620002cc57503373ffffffffffffffffffffffffffffffffffffffff16816060015173ffffffffffffffffffffffffffffffffffffffff1614155b1562000304576040517f6bc987fd00000000000000000000000000000000000000000000000000000000815260040160405180910390fd5b81600284604051620003179190620013e8565b908152602001604051809103902060020160006101000a81548173ffffffffffffffffffffffffffffffffffffffff021916908373ffffffffffffffffffffffffffffffffffffffff1602179055508173ffffffffffffffffffffffffffffffffffffffff167f3edd90e7770f06fafde38004653b33870066c33bfc923ff6102acd601f85dfbc60405160405180910390a2505050565b6011835114620003ea576040517f56c74b3c00000000000000000000000000000000000000000000000000000000815260040160405180910390fd5b4282111562000425576040517f255ee82700000000000000000000000000000000000000000000000000000000815260040160405180910390fd5b60405180608001604052808381526020018281526020013373ffffffffffffffffffffffffffffffffffffffff1681526020013373ffffffffffffffffffffffffffffffffffffffff16815250600284604051620004849190620013e8565b9081526020016040518091039020600082015181600001556020820151816001015560408201518160020160006101000a81548173ffffffffffffffffffffffffffffffffffffffff021916908373ffffffffffffffffffffffffffffffffffffffff16021790555060608201518160030160006101000a81548173ffffffffffffffffffffffffffffffffffffffff021916908373ffffffffffffffffffffffffffffffffffffffff1602179055509050507fd02ad6efe924eb3fedae52dcbf8ba528c69451f3e2d3ec7067b6960dd3ff48e28360405162000568919062001453565b60405180910390a1505050565b6200057f62000b62565b6200058b600062000bf2565b565b6000600160009054906101000a900473ffffffffffffffffffffffffffffffffffffffff1673ffffffffffffffffffffffffffffffffffffffff16634fd6a648836040518263ffffffff1660e01b8152600401620005ec919062001453565b602060405180830381865afa1580156200060a573d6000803e3d6000fd5b505050506040513d601f19601f82011682018060405250810190620006309190620014b4565b905082604051620006429190620013e8565b60405180910390207f09e9b5d6d67275a5e11e606ba9ec755579a1814af62c7fe6d3bf4df19d52fa22826040516200067b9190620014f7565b60405180910390a2505050565b60008060009054906101000a900473ffffffffffffffffffffffffffffffffffffffff16905090565b6002818051602081018201805184825260208301602085012081835280955050505050506000915090508060000154908060010154908060020160009054906101000a900473ffffffffffffffffffffffffffffffffffffffff16908060030160009054906101000a900473ffffffffffffffffffffffffffffffffffffffff16905084565b600160009054906101000a900473ffffffffffffffffffffffffffffffffffffffff1681565b6200076762000b62565b600073ffffffffffffffffffffffffffffffffffffffff168173ffffffffffffffffffffffffffffffffffffffff1603620007dc5760006040517f1e4fbdf7000000000000000000000000000000000000000000000000000000008152600401620007d3919062001144565b60405180910390fd5b620007e78162000bf2565b50565b620007f462000b62565b60118451141580620008765750600073ffffffffffffffffffffffffffffffffffffffff166002856040516200082b9190620013e8565b908152602001604051809103902060020160009054906101000a900473ffffffffffffffffffffffffffffffffffffffff1673ffffffffffffffffffffffffffffffffffffffff1614155b15620008ae576040517f56c74b3c00000000000000000000000000000000000000000000000000000000815260040160405180910390fd5b42831115620008e9576040517f255ee82700000000000000000000000000000000000000000000000000000000815260040160405180910390fd5b6000620008f63362000cb6565b905060405180608001604052808581526020018381526020018473ffffffffffffffffffffffffffffffffffffffff1681526020018273ffffffffffffffffffffffffffffffffffffffff16815250600286604051620009579190620013e8565b9081526020016040518091039020600082015181600001556020820151816001015560408201518160020160006101000a81548173ffffffffffffffffffffffffffffffffffffffff021916908373ffffffffffffffffffffffffffffffffffffffff16021790555060608201518160030160006101000a81548173ffffffffffffffffffffffffffffffffffffffff021916908373ffffffffffffffffffffffffffffffffffffffff1602179055509050508460405162000a1a9190620013e8565b60405180910390207f8d92a6b0d7a25576a1a8f61ba8f282f9735bb4ec5237c707207b1445d105995485848460405162000a579392919062001514565b60405180910390a25050505050565b62000a7062000d55565b60028260405162000a829190620013e8565b908152602001604051809103902060405180608001604052908160008201548152602001600182015481526020016002820160009054906101000a900473ffffffffffffffffffffffffffffffffffffffff1673ffffffffffffffffffffffffffffffffffffffff1673ffffffffffffffffffffffffffffffffffffffff1681526020016003820160009054906101000a900473ffffffffffffffffffffffffffffffffffffffff1673ffffffffffffffffffffffffffffffffffffffff1673ffffffffffffffffffffffffffffffffffffffff16815250509050919050565b62000b6c62000d4d565b73ffffffffffffffffffffffffffffffffffffffff1662000b8c62000688565b73ffffffffffffffffffffffffffffffffffffffff161462000bf05762000bb262000d4d565b6040517f118cdaa700000000000000000000000000000000000000000000000000000000815260040162000be7919062001144565b60405180910390fd5b565b60008060009054906101000a900473ffffffffffffffffffffffffffffffffffffffff169050816000806101000a81548173ffffffffffffffffffffffffffffffffffffffff021916908373ffffffffffffffffffffffffffffffffffffffff1602179055508173ffffffffffffffffffffffffffffffffffffffff168173ffffffffffffffffffffffffffffffffffffffff167f8be0079c531659141344cd1fd0a4f28419497f9722a3daafe3b4186f6b6457e060405160405180910390a35050565b6000808260405162000cc89062000da9565b62000cd4919062001144565b604051809103906000f08015801562000cf1573d6000803e3d6000fd5b5090508073ffffffffffffffffffffffffffffffffffffffff167f5cbd6538691591ee2fccc3a0b24c6e6418d019848504e30a2e22d5a4062b33898460405162000d3c919062001144565b60405180910390a280915050919050565b600033905090565b60405180608001604052806000815260200160008152602001600073ffffffffffffffffffffffffffffffffffffffff168152602001600073ffffffffffffffffffffffffffffffffffffffff1681525090565b6105d8806200155283390190565b6000604051905090565b600080fd5b600080fd5b600080fd5b600080fd5b6000601f19601f8301169050919050565b7f4e487b7100000000000000000000000000000000000000000000000000000000600052604160045260246000fd5b62000e208262000dd5565b810181811067ffffffffffffffff8211171562000e425762000e4162000de6565b5b80604052505050565b600062000e5762000db7565b905062000e65828262000e15565b919050565b600067ffffffffffffffff82111562000e885762000e8762000de6565b5b62000e938262000dd5565b9050602081019050919050565b82818337600083830152505050565b600062000ec662000ec08462000e6a565b62000e4b565b90508281526020810184848401111562000ee55762000ee462000dd0565b5b62000ef284828562000ea0565b509392505050565b600082601f83011262000f125762000f1162000dcb565b5b813562000f2484826020860162000eaf565b91505092915050565b600073ffffffffffffffffffffffffffffffffffffffff82169050919050565b600062000f5a8262000f2d565b9050919050565b62000f6c8162000f4d565b811462000f7857600080fd5b50565b60008135905062000f8c8162000f61565b92915050565b6000806040838503121562000fac5762000fab62000dc1565b5b600083013567ffffffffffffffff81111562000fcd5762000fcc62000dc6565b5b62000fdb8582860162000efa565b925050602062000fee8582860162000f7b565b9150509250929050565b6000819050919050565b6200100d8162000ff8565b81146200101957600080fd5b50565b6000813590506200102d8162001002565b92915050565b6000806000606084860312156200104f576200104e62000dc1565b5b600084013567ffffffffffffffff81111562001070576200106f62000dc6565b5b6200107e8682870162000efa565b935050602062001091868287016200101c565b9250506040620010a4868287016200101c565b9150509250925092565b60008060408385031215620010c857620010c762000dc1565b5b600083013567ffffffffffffffff811115620010e957620010e862000dc6565b5b620010f78582860162000efa565b925050602083013567ffffffffffffffff8111156200111b576200111a62000dc6565b5b620011298582860162000efa565b9150509250929050565b6200113e8162000f4d565b82525050565b60006020820190506200115b600083018462001133565b92915050565b6000602082840312156200117a576200117962000dc1565b5b600082013567ffffffffffffffff8111156200119b576200119a62000dc6565b5b620011a98482850162000efa565b91505092915050565b620011bd8162000ff8565b82525050565b6000608082019050620011da6000830187620011b2565b620011e96020830186620011b2565b620011f8604083018562001133565b62001207606083018462001133565b95945050505050565b60006020828403121562001229576200122862000dc1565b5b6000620012398482850162000f7b565b91505092915050565b600080600080608085870312156200125f576200125e62000dc1565b5b600085013567ffffffffffffffff81111562001280576200127f62000dc6565b5b6200128e8782880162000efa565b9450506020620012a1878288016200101c565b9350506040620012b48782880162000f7b565b9250506060620012c7878288016200101c565b91505092959194509250565b620012de8162000ff8565b82525050565b620012ef8162000f4d565b82525050565b6080820160008201516200130d6000850182620012d3565b506020820151620013226020850182620012d3565b506040820151620013376040850182620012e4565b5060608201516200134c6060850182620012e4565b50505050565b6000608082019050620013696000830184620012f5565b92915050565b600081519050919050565b600081905092915050565b60005b83811015620013a557808201518184015260208101905062001388565b60008484015250505050565b6000620013be826200136f565b620013ca81856200137a565b9350620013dc81856020860162001385565b80840191505092915050565b6000620013f68284620013b1565b915081905092915050565b600082825260208201905092915050565b60006200141f826200136f565b6200142b818562001401565b93506200143d81856020860162001385565b620014488162000dd5565b840191505092915050565b600060208201905081810360008301526200146f818462001412565b905092915050565b60008115159050919050565b6200148e8162001477565b81146200149a57600080fd5b50565b600081519050620014ae8162001483565b92915050565b600060208284031215620014cd57620014cc62000dc1565b5b6000620014dd848285016200149d565b91505092915050565b620014f18162001477565b82525050565b60006020820190506200150e6000830184620014e6565b92915050565b60006060820190506200152b6000830186620011b2565b6200153a6020830185620011b2565b62001549604083018462001133565b94935050505056fe608060405234801561001057600080fd5b506040516105d83803806105d8833981810160405281019061003291906101e2565b80600073ffffffffffffffffffffffffffffffffffffffff168173ffffffffffffffffffffffffffffffffffffffff16036100a55760006040517f1e4fbdf700000000000000000000000000000000000000000000000000000000815260040161009c919061021e565b60405180910390fd5b6100b4816100bb60201b60201c565b5050610239565b60008060009054906101000a900473ffffffffffffffffffffffffffffffffffffffff169050816000806101000a81548173ffffffffffffffffffffffffffffffffffffffff021916908373ffffffffffffffffffffffffffffffffffffffff1602179055508173ffffffffffffffffffffffffffffffffffffffff168173ffffffffffffffffffffffffffffffffffffffff167f8be0079c531659141344cd1fd0a4f28419497f9722a3daafe3b4186f6b6457e060405160405180910390a35050565b600080fd5b600073ffffffffffffffffffffffffffffffffffffffff82169050919050565b60006101af82610184565b9050919050565b6101bf816101a4565b81146101ca57600080fd5b50565b6000815190506101dc816101b6565b92915050565b6000602082840312156101f8576101f761017f565b5b6000610206848285016101cd565b91505092915050565b610218816101a4565b82525050565b6000602082019050610233600083018461020f565b92915050565b610390806102486000396000f3fe608060405234801561001057600080fd5b50600436106100415760003560e01c8063715018a6146100465780638da5cb5b14610050578063f2fde38b1461006e575b600080fd5b61004e61008a565b005b61005861009e565b60405161006591906102e1565b60405180910390f35b6100886004803603810190610083919061032d565b6100c7565b005b61009261014d565b61009c60006101d4565b565b60008060009054906101000a900473ffffffffffffffffffffffffffffffffffffffff16905090565b6100cf61014d565b600073ffffffffffffffffffffffffffffffffffffffff168173ffffffffffffffffffffffffffffffffffffffff16036101415760006040517f1e4fbdf700000000000000000000000000000000000000000000000000000000815260040161013891906102e1565b60405180910390fd5b61014a816101d4565b50565b610155610298565b73ffffffffffffffffffffffffffffffffffffffff1661017361009e565b73ffffffffffffffffffffffffffffffffffffffff16146101d257610196610298565b6040517f118cdaa70000000000000000000000000000000000000000000000000000000081526004016101c991906102e1565b60405180910390fd5b565b60008060009054906101000a900473ffffffffffffffffffffffffffffffffffffffff169050816000806101000a81548173ffffffffffffffffffffffffffffffffffffffff021916908373ffffffffffffffffffffffffffffffffffffffff1602179055508173ffffffffffffffffffffffffffffffffffffffff168173ffffffffffffffffffffffffffffffffffffffff167f8be0079c531659141344cd1fd0a4f28419497f9722a3daafe3b4186f6b6457e060405160405180910390a35050565b600033905090565b600073ffffffffffffffffffffffffffffffffffffffff82169050919050565b60006102cb826102a0565b9050919050565b6102db816102c0565b82525050565b60006020820190506102f660008301846102d2565b92915050565b600080fd5b61030a816102c0565b811461031557600080fd5b50565b60008135905061032781610301565b92915050565b600060208284031215610343576103426102fc565b5b600061035184828501610318565b9150509291505056fea2646970667358221220b23dbb89f0b20c79e489e914ddfb9b877bf3b83c24c8a23436d6e26da1ba3ddf64736f6c63430008180033a2646970667358221220e6eb3c8a3eb40530301848edee9524eca39b169f6419fd05dbdb471e6877b4ac64736f6c63430008180033",
  "linkReferences": {},
  "deployedLinkReferences": {}
}