{
  "_format": "hh-sol-artifact-1",
  "contractName": "Wallet",
  "sourceName": "contracts/Manufacturer.sol",
  "abi": [
    {
      "inputs": [
        {
          "internalType": "address",
          "name": "wallet",
          "type": "address"
        },
        {
          "internalType": "address",
          "name": "_manufacturer",
          "type": "address"
        }
      ],
      "stateMutability": "nonpayable",
      "type": "constructor"
    },
    {
      "inputs": [],
      "name": "InvalidMileage",
      "type": "error"
    },
    {
      "inputs": [],
      "name": "InvalidWallet",
      "type": "error"
    },
    {
      "inputs": [
        {
          "internalType": "address",
          "name": "owner",
          "type": "address"
        }
      ],
      "name": "OwnableInvalidOwner",
      "type": "error"
    },
    {
      "inputs": [
        {
          "internalType": "address",
          "name": "account",
          "type": "address"
        }
      ],
      "name": "OwnableUnauthorizedAccount",
      "type": "error"
    },
    {
      "anonymous": false,
      "inputs": [
        {
          "indexed": true,
          "internalType": "string",
          "name": "vin",
          "type": "string"
        },
        {
          "indexed": false,
          "internalType": "uint256",
          "name": "newMileage",
          "type": "uint256"
        }
      ],
      "name": "CarMileageChanged",
      "type": "event"
    },
    {
      "anonymous": false,
      "inputs": [
        {
          "indexed": true,
          "internalType": "address",
          "name": "previousOwner",
          "type": "address"
        },
        {
          "indexed": true,
          "internalType": "address",
          "name": "newOwner",
          "type": "address"
        }
      ],
      "name": "OwnershipTransferred",
      "type": "event"
    },
    {
      "inputs": [
        {
          "internalType": "string",
          "name": "vin",
          "type": "string"
        },
        {
          "internalType": "uint256",
          "name": "newMileage",
          "type": "uint256"
        }
      ],
      "name": "changeCarMileage",
      "outputs": [],
      "stateMutability": "nonpayable",
      "type": "function"
    },
    {
      "inputs": [],
      "name": "manufacturer",
      "outputs": [
        {
          "internalType": "contract Manufacturer",
          "name": "",
          "type": "address"
        }
      ],
      "stateMutability": "view",
      "type": "function"
    },
    {
      "inputs": [],
      "name": "owner",
      "outputs": [
        {
          "internalType": "address",
          "name": "",
          "type": "address"
        }
      ],
      "stateMutability": "view",
      "type": "function"
    },
    {
      "inputs": [],
      "name": "renounceOwnership",
      "outputs": [],
      "stateMutability": "nonpayable",
      "type": "function"
    },
    {
      "inputs": [
        {
          "internalType": "address",
          "name": "newOwner",
          "type": "address"
        }
      ],
      "name": "transferOwnership",
      "outputs": [],
      "stateMutability": "nonpayable",
      "type": "function"
    }
  ],
  "bytecode": "0x60806040523480156200001157600080fd5b5060405162000d8738038062000d87833981810160405281019062000037919062000236565b81600073ffffffffffffffffffffffffffffffffffffffff168173ffffffffffffffffffffffffffffffffffffffff1603620000ad5760006040517f1e4fbdf7000000000000000000000000000000000000000000000000000000008152600401620000a491906200028e565b60405180910390fd5b620000be816200010860201b60201c565b5080600160006101000a81548173ffffffffffffffffffffffffffffffffffffffff021916908373ffffffffffffffffffffffffffffffffffffffff1602179055505050620002ab565b60008060009054906101000a900473ffffffffffffffffffffffffffffffffffffffff169050816000806101000a81548173ffffffffffffffffffffffffffffffffffffffff021916908373ffffffffffffffffffffffffffffffffffffffff1602179055508173ffffffffffffffffffffffffffffffffffffffff168173ffffffffffffffffffffffffffffffffffffffff167f8be0079c531659141344cd1fd0a4f28419497f9722a3daafe3b4186f6b6457e060405160405180910390a35050565b600080fd5b600073ffffffffffffffffffffffffffffffffffffffff82169050919050565b6000620001fe82620001d1565b9050919050565b6200021081620001f1565b81146200021c57600080fd5b50565b600081519050620002308162000205565b92915050565b6000806040838503121562000250576200024f620001cc565b5b600062000260858286016200021f565b925050602062000273858286016200021f565b9150509250929050565b6200028881620001f1565b82525050565b6000602082019050620002a560008301846200027d565b92915050565b610acc80620002bb6000396000f3fe608060405234801561001057600080fd5b50600436106100575760003560e01c8063715018a61461005c57806374754282146100665780638da5cb5b146100845780638e11f443146100a2578063f2fde38b146100be575b600080fd5b6100646100da565b005b61006e6100ee565b60405161007b91906105ca565b60405180910390f35b61008c610114565b6040516100999190610606565b60405180910390f35b6100bc60048036038101906100b791906107b1565b61013d565b005b6100d860048036038101906100d39190610839565b610372565b005b6100e26103f8565b6100ec600061047f565b565b600160009054906101000a900473ffffffffffffffffffffffffffffffffffffffff1681565b60008060009054906101000a900473ffffffffffffffffffffffffffffffffffffffff16905090565b6101456103f8565b6000600160009054906101000a900473ffffffffffffffffffffffffffffffffffffffff1673ffffffffffffffffffffffffffffffffffffffff1663fce2ba7b846040518263ffffffff1660e01b81526004016101a291906108e5565b608060405180830381865afa1580156101bf573d6000803e3d6000fd5b505050506040513d601f19601f820116820180604052508101906101e391906109ae565b90503373ffffffffffffffffffffffffffffffffffffffff16816060015173ffffffffffffffffffffffffffffffffffffffff161461024e576040517f23455ba100000000000000000000000000000000000000000000000000000000815260040160405180910390fd5b8181602001511061028b576040517ff8e9999200000000000000000000000000000000000000000000000000000000815260040160405180910390fd5b600160009054906101000a900473ffffffffffffffffffffffffffffffffffffffff1673ffffffffffffffffffffffffffffffffffffffff16631d716d5f848360000151856040518463ffffffff1660e01b81526004016102ee939291906109ea565b600060405180830381600087803b15801561030857600080fd5b505af115801561031c573d6000803e3d6000fd5b505050508260405161032e9190610a64565b60405180910390207f97a8f6022b0fd6bd89e38a8d4e3526b2d10a14b2a04eabdd6209a14059fa2fb9836040516103659190610a7b565b60405180910390a2505050565b61037a6103f8565b600073ffffffffffffffffffffffffffffffffffffffff168173ffffffffffffffffffffffffffffffffffffffff16036103ec5760006040517f1e4fbdf70000000000000000000000000000000000000000000000000000000081526004016103e39190610606565b60405180910390fd5b6103f58161047f565b50565b610400610543565b73ffffffffffffffffffffffffffffffffffffffff1661041e610114565b73ffffffffffffffffffffffffffffffffffffffff161461047d57610441610543565b6040517f118cdaa70000000000000000000000000000000000000000000000000000000081526004016104749190610606565b60405180910390fd5b565b60008060009054906101000a900473ffffffffffffffffffffffffffffffffffffffff169050816000806101000a81548173ffffffffffffffffffffffffffffffffffffffff021916908373ffffffffffffffffffffffffffffffffffffffff1602179055508173ffffffffffffffffffffffffffffffffffffffff168173ffffffffffffffffffffffffffffffffffffffff167f8be0079c531659141344cd1fd0a4f28419497f9722a3daafe3b4186f6b6457e060405160405180910390a35050565b600033905090565b600073ffffffffffffffffffffffffffffffffffffffff82169050919050565b6000819050919050565b600061059061058b6105868461054b565b61056b565b61054b565b9050919050565b60006105a282610575565b9050919050565b60006105b482610597565b9050919050565b6105c4816105a9565b82525050565b60006020820190506105df60008301846105bb565b92915050565b60006105f08261054b565b9050919050565b610600816105e5565b82525050565b600060208201905061061b60008301846105f7565b92915050565b6000604051905090565b600080fd5b600080fd5b600080fd5b600080fd5b6000601f19601f8301169050919050565b7f4e487b7100000000000000000000000000000000000000000000000000000000600052604160045260246000fd5b6106888261063f565b810181811067ffffffffffffffff821117156106a7576106a6610650565b5b80604052505050565b60006106ba610621565b90506106c6828261067f565b919050565b600067ffffffffffffffff8211156106e6576106e5610650565b5b6106ef8261063f565b9050602081019050919050565b82818337600083830152505050565b600061071e610719846106cb565b6106b0565b90508281526020810184848401111561073a5761073961063a565b5b6107458482856106fc565b509392505050565b600082601f83011261076257610761610635565b5b813561077284826020860161070b565b91505092915050565b6000819050919050565b61078e8161077b565b811461079957600080fd5b50565b6000813590506107ab81610785565b92915050565b600080604083850312156107c8576107c761062b565b5b600083013567ffffffffffffffff8111156107e6576107e5610630565b5b6107f28582860161074d565b92505060206108038582860161079c565b9150509250929050565b610816816105e5565b811461082157600080fd5b50565b6000813590506108338161080d565b92915050565b60006020828403121561084f5761084e61062b565b5b600061085d84828501610824565b91505092915050565b600081519050919050565b600082825260208201905092915050565b60005b838110156108a0578082015181840152602081019050610885565b60008484015250505050565b60006108b782610866565b6108c18185610871565b93506108d1818560208601610882565b6108da8161063f565b840191505092915050565b600060208201905081810360008301526108ff81846108ac565b905092915050565b600080fd5b60008151905061091b81610785565b92915050565b6000815190506109308161080d565b92915050565b60006080828403121561094c5761094b610907565b5b61095660806106b0565b905060006109668482850161090c565b600083015250602061097a8482850161090c565b602083015250604061098e84828501610921565b60408301525060606109a284828501610921565b60608301525092915050565b6000608082840312156109c4576109c361062b565b5b60006109d284828501610936565b91505092915050565b6109e48161077b565b82525050565b60006060820190508181036000830152610a0481866108ac565b9050610a1360208301856109db565b610a2060408301846109db565b949350505050565b600081905092915050565b6000610a3e82610866565b610a488185610a28565b9350610a58818560208601610882565b80840191505092915050565b6000610a708284610a33565b915081905092915050565b6000602082019050610a9060008301846109db565b9291505056fea26469706673582212205707d1b2259fd2563a109a8d0bd410896c18d80c605453f91b891f744e9709c764736f6c63430008180033",
  "linkReferences": {},
  "deployedLinkReferences": {}
}